:020000040800F2
:100000009827002001010008AF130008D91100084B
:1000100001130008310B0008F91F00080000000060
:10002000000000000000000000000000691B000844
:1000300037100008000000004D190008951D000849
:100040001B0100081B0100081B0100081B01000820
:100050001B0100081B0100081B0100081B01000810
:100060001B0100081B0100081B0100081B01000800
:100070001B0100081B0100081B0100081B010008F0
:100080001B0100081B0100081B0100081B010008E0
:100090001B0100081B0100081B0100081B010008D0
:1000A0001B0100081B0100081B0100081B010008C0
:1000B0001B0100081B0100081B0100081B010008B0
:1000C0001B0100081B0100081B0100081B010008A0
:1000D0001B0100081B0100084D1E00081B01000841
:1000E0001B0100081B0100081B010008DFF80CD0F1
:1000F00000F000FB00480047F92A0008982700207C
:100100000648804706480047FEE7FEE7FEE7FEE7B1
:10011000FEE7FEE7FEE7FEE7FEE7FEE7A51D0008B7
:10012000ED0000080649074A0868504343F23902C7
:10013000104408604008704701490860704700009B
:10014000940000206D4EC64140EA01039B0703D096
:1001500009E008C9121F08C0042AFAD203E011F806
:10016000013B00F8013B521EF9D27047D2B201E0C8
:1001700000F8012B491EFBD270470022F6E710B5AC
:1001800013460A4604461946FFF7F0FF204610BD05
:1001900030B505462A460B4612F8010B13F8014B01
:1001A00008B1A042F8D01CB1002802D06D1CF1E7C4
:1001B000284630BD421C10F8011B0029FBD1801AD3
:1001C000704780EA010210B502F00043400022D0DF
:1001D0004A001FD0010E01EB1261C0F35600C2F3BA
:1001E000560240F4000042F40002A0FB022000048A
:1001F0007F39140400D0401C50EA124001D4400062
:10020000491EC2B20C0604EBD010401C4008802AE4
:1002100002D003E0002010BD20F00100002900DA28
:100220000020184310BDC10F80EAE0700844CA07DF
:100230009623002100F077B820F00040C10DC0F3F4
:10024000160040F400007F2901DA0020704796294B
:1002500003DCC1F19601C840704796398840704769
:1002600000F0004230F000400AD0C10D01F560718D
:10027000C0F3160042EA0151C2084007114370471B
:1002800000200146704730B50B4601460020202271
:10029000012409E021FA02F59D4205D303FA02F593
:1002A000491B04FA02F52844151EA2F10102F1DCF3
:1002B00030BD2DE9F05F0546002092469B468846FA
:1002C0000646814640241BE02846414647462246D2
:1002D00000F031FA53465A46C01A914110D31146E4
:1002E0001846224600F018FA2D1A67EB01084F460F
:1002F00022460120002100F00FFA17EB00094E41C1
:10030000201EA4F10104DFDC484631462A4643465C
:10031000BDE8F09F0029A8BF7047401C490008BFF6
:1003200020F00100704710B4B0FA80FC00FA0CF025
:1003300050EA010404BF10BC704749B1CCF120045D
:1003400021FA04F411FA0CF118BF012121430843EA
:10035000A3EB0C01CB1D4FEA00614FEA102042BF16
:10036000002010BC704700EBC35010440029A4BF0C
:1003700010BC7047401C490008BF20F0010010BCB1
:1003800070472DE9FE4F804681EA0300C00F0C46FE
:10039000009021F0004123F00045B8EB0200A94194
:1003A00005D24046214690461C460B46024623F0A5
:1003B0000040104347D0270DC7F30A00C3F30A518A
:1003C0000290401A019040286BDAC3F3130040F406
:1003D000801B0098924620B10023D2EB030A63EB06
:1003E0000B0B01985946C0F14002504600F094F9B9
:1003F00006460D4650465946019A00F0ACF910EBFE
:1004000008006141002487EA115284EAE7731A4325
:1004100040D0009A62B3019A012A4FEA075215DCD4
:10042000001B61EB02014FF0004202EA0752CDE9E6
:100430000042001C41F5801132462B4600F0ACF919
:1004400003B0BDE8F08F40462146F9E7001B61EBA1
:100450000201001C41F5801300185B412018A2F531
:10046000001747EB030140EAD570B6196D4111E062
:100470006D084FEA360645EAC0754FEA0752001B81
:1004800061EB0201001C41F5801149084FEA300080
:100490000019514132462B4603B0BDE8F04F00F041
:1004A0006CB90098012240000023D0EB020263EBFC
:1004B000E073009821464FEAE074B8EB000061EB6E
:1004C0000401E9E783F000435BE781F0004158E76E
:1004D0002DE9FE4F81EA030404F0004421F00041BD
:1004E00000944FF0000B23F0004350EA01045ED06B
:1004F00052EA03045BD0C3F30A54C1F30A552C44F7
:10050000A4F2F3340194A0FB0254C1F3130141F4AB
:100510008011C3F3130343F4801301FB024400FB77
:10052000034E840A970A44EA815447EA8357A4FB9E
:10053000076802958D0A05FB07854FEA932C04FB9B
:100540000C542705029D4FEA065847EA1637B5EBCB
:1005500008056EEB070C870E920E47EA811742EAF8
:100560008312A7FB0201B6EB0B0164EB00042B0D19
:1005700043EA0C335E1844EB1C50DA465146E7FB65
:100580000201C5F313044FEA0B3343EA14534FEA55
:100590000432019C43EA0603A4F10C040294009C7B
:1005A000CDE900B400F0F8F803B0BDE8F08F00200A
:1005B0000146F9E72DE9F04D81EA030404F0004B10
:1005C00021F0004514464FF0000A23F0004150EAA4
:1005D000050220D054EA01021DD0C5F30A57024695
:1005E000C5F31303C1F31300C1F30A5640F4801599
:1005F00043F48013A7EB0608101BD64608F2FD381B
:1006000073EB050002D308F1010801E092185B4189
:10061000B8F1000F03DA00200146BDE8F08D00209C
:100620004FF48011064684460EE0171B73EB050756
:1006300005D3121B63EB050306434CEA010C490882
:100640004FEA300092185B4150EA0107EDD152EABF
:10065000030012D082EA040083EA0501084305D0B2
:10066000101BAB4106D20122002306E000224FF00E
:10067000004302E06FF0010253101AEB06004CEB4E
:10068000085110EB0A0041EB0B01BDE8F04D00F002
:1006900074B8C1F30A52C1F3130140F2FF3341F4BD
:1006A00080119A4202DA00200146704740F233433B
:1006B0009A42A2F2334202DC524200F03CB800F00F
:1006C0002BB8000030B5041E71F1000404DB4FF0BC
:1006D0000044404264EB0101141E73F1000405DB89
:1006E0001C464FF00043524263EB0403994208BF9B
:1006F000904230BD064C074D06E0E06840F0010333
:1007000094E8070098471034AC42F6D3FFF7F2FCA8
:10071000684D0008884D0008202A04DB203A00FAC2
:1007200002F1002070479140C2F1200320FA03F348
:10073000194390407047202A04DB203A21FA02F046
:100740000021704721FA02F3D040C2F1200291400B
:10075000084319467047202A06DBCB17203A41FA96
:1007600002F043EAE07306E041FA02F3D040C2F13E
:100770002002914008431946704710B5141E73F1CA
:10078000000408DA401C41F1000192185B411A4351
:1007900001D120F0010010BD2DE9F04D92469B469D
:1007A00011B1B1FA81F202E0B0FA80F22032904643
:1007B000FFF7B2FF04460F4640EA0A0041EA0B0188
:1007C00053465A46084313D0114653EA010019D044
:1007D000C8F140025046FFF7AEFF05460E465046B0
:1007E00059464246FFF798FF084305D0012004E030
:1007F00020463946BDE8F08D0020054346EAE07604
:100800002C4337430A986305E40AA0EB0800002252
:10081000FD0A44EA47540A3002D500200146E9E7C0
:10082000010510196941DDE9084500196941BDE874
:10083000F04DA2E70029816802D041F0010101E0FA
:1008400021F00101816070470029816802D041F4E4
:10085000807101E021F48071816070470D4910B50D
:10086000884202D1012144150AE00B49884202D195
:100870000121041504E0094988420AD10121CC0371
:10088000204601F005F92046BDE81040002101F0A6
:10089000FFB810BD0024014000280140003C014089
:1008A000014600208968490700D5012070470146AC
:1008B00000208968090700D50120704710B54268FB
:1008C0000E4B0C791A400B6842EA04221343436032
:1008D00083680B4A1340D1E9024222434C7943EA30
:1008E00044031A438260C26A097C22F47002491EE2
:1008F000C9B242EA0151C16210BD0000FFFEF0FF23
:10090000FDF7F1FF70B5072409290AD9C568A1F1DF
:100910000A0606EB4606B440A543B3401D43C56036
:1009200007E0056901EB4106B440A543B3401D4310
:1009300005611F23072A09D2446B521E02EB820273
:1009400093409C4391400C43446370BD0D2A09D2EF
:10095000046BD21F02EB820293409C4391400C43F4
:10096000046370BDC46A0D3A02EB820293409C435B
:1009700091400C43C46270BD816841F00801816000
:1009800070470029816802D041F4A00101E021F400
:10099000A00181607047816841F004018160704767
:1009A00070B586B00121042001F066F801214802EB
:1009B00001F062F84FF4004001F03CF87020ADF80F
:1009C000140000248DF8174003258DF8165005A952
:1009D000214800F093FB214E3046FFF73FFF0120F6
:1009E0008DF804008DF805004FF46020CDE9020475
:1009F00000948DF8105069463046FFF75FFF0523DD
:100A0000012204213046FFF77DFF0523022219460B
:100A10003046FFF777FF0523032206213046FFF714
:100A200071FF01213046FFF705FF3046FFF7A4FFB5
:100A300034462046FFF73BFF0028FAD12046FFF757
:100A4000AAFF2046FFF72CFF0028FAD101212046FB
:100A5000FFF797FF06B070BD000801400024014079
:100A600070B50C46054601218CB0084600F0ECFF3D
:100A7000124E304600F050FA1148CDE90005002032
:100A80008021CDE90401CDE90204490006918900E5
:100A90000791202108910902CDE9091069463046E5
:100AA00000F0ACFA0121304600F02AFA0448012196
:100AB0004C38FFF7C9FE0CB070BD000008000240C2
:100AC0004C2401403EB50020174B009001906A462F
:100AD0000290002101EB410403EB440452F8205042
:100AE00034F81040491C2C44C9B242F8204008296F
:100AF000F0D3401CC0B20328EBD3009840F6E44288
:100B0000C1080A4881800199C908C1800299C908B1
:100B1000514340F6FF72B1FBF2F101EB410202EBEF
:100B2000C10101813EBD00009C00002000000020AA
:100B3000FEE7000070B505250A4C0EE0A18820688C
:100B4000FFF71BFB216B08A08847C82208A120687B
:100B500000F0BCFA08B1012070BD28466D1EEDB250
:100B6000ECD270BD3000002041540D0A000000009E
:100B70004F4B000010B5074C07A0216B884732206F
:100B800000F05AFA216B04A08847BDE810403220DB
:100B900000F052BA300000202B2B2B002DE9F0473B
:100BA00090468A468146FFF705FB07465046FFF709
:100BB00001FB06464046FFF7FDFA714C002110226A
:100BC000A181A3680546B8191A70A2892844521C4D
:100BD000A2811030C21700EB526323F07F02801A0B
:100BE000C2B2D811002801DD42F08002B4F80CC076
:100BF000A36803F80C20A28902F10102A281E9DCBA
:100C0000A06892B24FF0040C8154A08900F1010059
:100C100080B2A081A26802F800C0A0894FF04D0206
:100C200000F1010080B2A081A3681A54A0894FF09E
:100C3000510200F1010080B2A081A3681A54A0897A
:100C400000F1010082B2A281A3684FF054009854D1
:100C5000A28902F1010292B2A281A3689854A089EC
:100C600000F1010080B2A081A26802F800C0A08952
:100C70004FF0C20200F1010080B2A081A3681A54B3
:100C8000A08900F1010080B2A081A2681154A0895E
:100C90004FF03C0100F1010080B2A081A268115424
:100CA000A0894FEA172100F1010080B2A081A2685B
:100CB0001154A08900F1010080B2A081A1683A46D8
:100CC0000F54A08900F1010080B2A081A1680844FE
:100CD0004946FFF739FAA089002E384480B2A08136
:100CE00015DDA268310A1154A0893246401C80B239
:100CF000A081A1680E54A089401C80B2A081A16887
:100D000008445146FFF720FAA0893044A081002D05
:100D100016DDA289A168280A8854A0892A46401CA9
:100D200080B2A081A1680D54A089401C80B2A0812E
:100D3000A16808444146FFF707FAA0892844A0812A
:100D40000125A1882068FFF718FAA189A06800F0A2
:100D50002BFB1D2620680178202902D1407802282B
:100D60000BD0642000F068F9761EF6B2F2D2284665
:100D70006D1EEDB2E5D2BDE8F0870120FBE7000073
:100D80006C0000202DE9F0410F46804605251B4CE4
:100D90000CE0A1882068FFF7F0F9216B18A08847C4
:100DA000C8221CA1206800F091F910B96D1EEDB2A7
:100DB000EFD2E5B101254FF4FA56A189A068FFF7FB
:100DC000DCF9A1882068FFF7D8F93B46424612A11A
:100DD000A06801F0FDF9216BA068884732460DA19B
:100DE000206800F073F920B10120BDE8F0810020F7
:100DF000FBE728466D1EEDB2DFD2F6E7300000209B
:100E000041542B43574D4F44455F4355523D310D9F
:100E10000A0000004F4B000041542B43574A4150F9
:100E20005F4355523D222573222C222573220D0A41
:100E3000000000002DE9F843224C80461646E06A87
:100E40000F4680474FF4FA7000F0F6F8022518E0DC
:100E5000A1882068FFF791F9A189A068FFF78DF9B3
:100E600000963B46424618A1A06801F0B1F9216BFB
:100E7000A06888474FF4FA521AA1206800F026F9BA
:100E800010B96D1EEDB2E3D2A5B1A06A804700286B
:100E90000ED00125A1882068FFF76FF9216B13A000
:100EA0008847C82215A1206800F010F920B1012060
:100EB000BDE8F8830020FBE728466D1EEDB2E9D2BD
:100EC000F6E700003000002041542B4349505354B2
:100ED0004152543D222573222C222573222C256455
:100EE0000D0A0000434F4E4E4543540041542B43DE
:100EF000495053454E440D0A000000003E000000DA
:100F00000029016802D041F0010102E04FF6FE72B3
:100F1000114001607047000001684FF6FE721140F9
:100F200001600021016041608160C1603149314A46
:100F30000839904203D1486840F00F0006E02D4A7E
:100F40001432904204D1486840F0F0004860704785
:100F5000284A2832904203D1486840F47060F5E78F
:100F6000244A3C32904203D1486840F47040EDE797
:100F7000204A5032904203D1486840F47020E5E79F
:100F80001C4A6432904203D1486840F47000DDE7A7
:100F9000184A7832904203D1486840F07060D5E733
:100FA000154A111F904203D1086840F00F0006E077
:100FB000114A1432904204D1086840F0F0000860F1
:100FC00070470D4A2832904203D1086840F470609F
:100FD000F5E7094A3C32904203D1086840F470407A
:100FE000EDE7054A50329042EAD1086840F470209B
:100FF000E5E70000080002400804024030B503683D
:1010000047F6F07293430C6A8A682243D1E904459B
:101010002C4322438C692243CC6922434C6A2243ED
:101020008C6A22431A430260CA6842600A6882607E
:101030004968C16030BD704730B504464FF47A75D9
:1010400002E0284600F004F8641EFAD230BD000029
:1010500030B5054600F0A8F84FEA000400F0A4F807
:10106000001BA842FAD330BD0221014800F09CB910
:10107000CE4C000870B50E4CE06A80474FF4FA7011
:10108000FFF7DAFF0CE0A1882068FFF776F8216B04
:1010900008A08847C8220BA1206800F017F810B9F3
:1010A0006D1EEDB2EFD20DB1012070BD002070BDFC
:1010B0003000002041542B434950434C4F53450DC1
:1010C0000A000000434C4F534544000070B50646EB
:1010D0000A20B2FBF0F40D4602E00A20FFF7ACFF55
:1010E00029463046FFF754F810B9641EA4B2F4D272
:1010F0000CB1012070BD002070BD0000F0B5CA78B1
:10110000002502F00F03D20601D58A7813430A782E
:101110004FF00F0E12F0FF0F4FF001021CD00468C9
:101120000F8802FA05F63740B74211D14FEA850C15
:101130000EFA0CF724EA070703FA0CF43C43CF78C5
:10114000282F02D0482F02D002E0466100E006615D
:101150006D1C082DE4D304600C88FF2C1ED9446854
:101160005FF0000606F1080702FA07F50F882F4026
:10117000AF420FD14FEA860C0EFA0CF7BC4303FACC
:101180000CF73C43CF78282F00D14561CF78482F0A
:1011900000D10561761C082EE4D34460F0BD4161A6
:1011A00070470161704700000A484FF0E021026873
:1011B0008969406800EB4003C3EBC013C1EBC30176
:1011C000B1FBF0F002EB4201C1EBC21100EBC10038
:1011D0007047000014000020FEE7000070B5164CB8
:1011E0002060A180A260A381FEF7C7FFA189A0684B
:1011F000FEF7C3FFE06A80474FF4FA752846FFF711
:101200001BFF216B0DA088474FF44870FFF714FFB8
:101210002069804700280ED0A1882068FEF7ADFF26
:10122000216B09A088472A4609A12068FFF74EFFD5
:10123000002800D0012070BD3000002041542B5206
:1012400053540D0A00000000415445300D0A0000BF
:101250004F4B000010B50B4C2060A180A260A38111
:10126000FEF78BFFA189A068FEF787FF606A8047C1
:101270006420FFF7E1FE606A8047BDE8104064200B
:10128000FFF7DABE6C00002038B50121042000F021
:10129000F3FB0120ADF800002820094C8DF8030075
:1012A00069462046FFF72AFF0220ADF800004820DB
:1012B0008DF8030069462046FFF720FF38BD000087
:1012C0000008014008B50121082000F0D5FB2020CE
:1012D000ADF8000003208DF8020010208DF8030007
:1012E00069460348FFF70AFF00F004F808BD000054
:1012F000000C014020210148FFF753BF000C0140C2
:10130000FEE700002DE9F04105461DA40E462046EB
:10131000FEF750FF401EC0B20022331A0EE000213B
:1013200006E05618675CAE5DBE4203D1491CC9B2E7
:101330008142F6D3814203D0521CD2B29342EEDCFA
:1013400093421BDB0F4800212A44026112F8013B43
:101350003A2BFAD16FF02F04026107E001EB810113
:1013600004EB41011944521C89B2026113787D2BB0
:10137000F4D1BDE8F04104A000F01ABFBDE8F0814F
:1013800068756500000000207265636569766520F8
:101390006D6573736167652C20687565203D202538
:1013A00064200D0A00000000C9B200F0DBBE7047E7
:1013B00070B50F23C47801780122F4B1144C24686D
:1013C000457804F4E064C4F5E064240AC4F104063A
:1013D000E3408478B5401C402C4301F1E021230117
:1013E00081F80034007800F01F018A404009800035
:1013F00000F1E020C0F8002170BD01F01F00824024
:101400004809800000F1E020C0F8802170BD000094
:101410000CED00E0024908430249086070470000F3
:101420000000FA050CED00E0463082B214490020BD
:1014300051F82030934203D3401C80B29728F7D351
:10144000D8B1A0F58073233B14D001EB800351F891
:10145000201053F8043C00EB8000591A9A1A02EB52
:1014600082025200B2FBF1F101EB4000A0F5CD7019
:1014700000B270474FF49660704702487047000012
:101480007830000818FCFFFF4FF400510148FEF7C8
:1014900074BE000094030020F8B50121082000F07C
:1014A000EBFA4FF48060ADF800000324424E8DF853
:1014B000024014258DF8035069463046FFF71EFEA2
:1014C0000121082000F0D8FAF014ADF800008DF8E2
:1014D00002408DF8035069463046FFF70FFE642046
:1014E000FFF7AAFD0021AE2000F0BEF90021D520B3
:1014F00000F0BAF90021802000F0B6F90021A82000
:1015000000F0B2F900213F2000F0AEF90021D32015
:1015100000F0AAF90021084600F0A6F900214020B9
:1015200000F0A2F900218D2000F09EF90021142086
:1015300000F09AF90021202000F096F90021022005
:1015400000F092F90021A12000F08EF90021C020C6
:1015500000F08AF90021DA2000F086F9002112203B
:1015600000F082F90021812000F07EF90021EF20B7
:1015700000F07AF90021D92000F076F90021F1205D
:1015800000F072F90021DB2000F06EF9002130201C
:1015900000F06AF90021A42000F066F90021A620DD
:1015A00000F062F90021AF2000F05EF9FFF76CFF58
:1015B000BDE8F84000F06AB8000C014010B57F2883
:1015C00016D83F2914D80723A3EBD10301F0070154
:1015D000C1F107040121A140064CDBB204EB8010ED
:1015E000002AC25CC9B201D00A4300E08A43C25457
:1015F00010BD00009403002070B50D4C4FF4006145
:101600002046FFF7CCFD00BF00BF00BF4FF4806550
:1016100029462046FFF7C5FD00BF00BF00BF294691
:101620002046FFF7BCFD00BF00BF00BF70BD00003B
:10163000000C01402DE9F0410825134F04464FF4FA
:101640000068EE0120064146384602D5FFF7A9FDA5
:1016500001E0FFF7A4FD6006040E00BF00BF00BF5D
:1016600031463846FFF79DFD00BF00BF00BF314641
:101670003846FFF794FD00BF00BF00BF6D1E15F098
:10168000FF05DFD1BDE8F081000C014070B5114EBF
:10169000002400BF04F1B000C0B2002100F0E4F863
:1016A0000021084600F0E0F80021102000F0DCF8EE
:1016B0005FF0000506EB8510005D402100F0D4F8D6
:1016C0006D1CEDB2802DF5D3641CE4B2082CE1D37F
:1016D00070BD0000940300202DE9FF4F0C460D9DC6
:1016E0008A46680700D0012000EBD5005843203A15
:1016F00000F0FF0BD0B2062B0DD0082B19D00C2B0D
:1017000048D1182D46D1244900EBC00001EB8000E0
:10171000814600263CE0082D05D00C2D3AD100EB87
:1017200040001E49F2E71E4900EB400001EB40007B
:10173000EEE7102D2ED11B4901EB0010E8E700BFAA
:1017400019F806704FF00008380601D50E9A02E02D
:101750000E9890B1002221460098FFF72FFF7806DF
:10176000641C070EE4B2A4EB0A00A84207D100985B
:101770005446401CC0B2009008E00122EBE708F19B
:10178000010000F0FF08B8F1080FDDD3761CF6B2B7
:101790005E45D5D3BDE8FF8F723F00080E350008C7
:1017A000D4320008823900082DE9FF4F82B00026AC
:1017B000DDE90F8A1D46934681463446012725E020
:1017C000281B401EC1B20A2001F04EFCBBFBF0F208
:1017D0000A20B2FBF0F100FB112026B9691E8C42F1
:1017E00001DA38B101263030C2B208FB0490C0B231
:1017F000434604E008FB0490C0B243462022CDE9F2
:1018000000A70399FFF768FF641CE4B2AC42D7D38A
:1018100006B0BDE8F08F2DE9FC4F9846DDE90B7B63
:1018200016460D460446C3F1800AC7F1400913E08D
:10183000A24502DA0024E819C5B2A94501DA00245C
:101840002546CDE9007B434629462046FFF744FF65
:1018500004EB0800C4B2761C3278A2F120005E28A6
:10186000E6D9BDE8FC8F00002DE9F041244D884603
:1018700007464FF4006421462846FFF792FC00BF5C
:1018800000BF00BF4FF4806631462846FFF789FC51
:1018900000BF00BF00BF21462846FFF780FC00BF05
:1018A00000BF00BF31462846FFF779FC00BF00BFEC
:1018B00000BF7820FFF7BEFEFFF79EFE4046FFF711
:1018C000B9FEFFF799FE3846FFF7B4FEFFF794FE26
:1018D00021462846FFF763FC00BF00BF00BF31462A
:1018E0002846FFF75EFC00BF00BF00BF2146284628
:1018F000FFF757FC00BF00BF00BFBDE8F08100004C
:10190000000C014070B502250A4C0EE0A188206849
:10191000FEF733FC216B08A08847C8220AA1206883
:10192000FFF7D4FB08B1012070BD28466D1EEDB253
:10193000ECD270BD3000002041542B4349504D4F34
:1019400044453D310D0A00004F4B00007047000038
:101950002DE9F047174689468046FEF72BFC0546E1
:101960004846FEF727FC324C06460020A08105EBD6
:1019700006000FB1001D00E0801CA268302111702C
:10198000A189491CA181C11700EB516222F07F019E
:10199000401AC1B2D011002802DD00BF41F0800121
:1019A000A389A268D154A18901F10101A181EADCD6
:1019B000A289A1684FEA15208854A0892A4600F11F
:1019C000010080B2A081A1680D54A08900F101003E
:1019D00080B2A081A16808444146FEF7B5FBA0890A
:1019E000284481B2A1818FB11148A368001F4278B9
:1019F0005A54A189491C89B2A181A36802785A541A
:101A0000A189491CA1810188491C0180A189A06884
:101A1000324608444946FEF797FBA089304481B21C
:101A2000A181A068FFF7C0FC207BBDE8F087000023
:101A30006C000020034A516821F440410143516089
:101A40007047000000100240044A0029516901D08B
:101A5000014300E0814351617047000000100240E3
:101A6000044A0029D16901D0014300E08143D161DA
:101A70007047000000100240044A0029916901D01B
:101A8000014300E081439161704700000010024073
:101A9000044A0029D16801D0014300E08143D160AC
:101AA000704700000010024030B51F494A6812F02C
:101AB0000C031E4A03D0042B01D0082B21D0026056
:101AC0004A680F231A4C03EA1212A35C0268DA4038
:101AD00042604B68072505EA1323E35C22FA03F30F
:101AE00083604B6805EAD323E35CDA40C26049684F
:101AF000032303EA9131231F595CB2FBF1F1016129
:101B000030BD4A684B6802F470124FF0020413F4BF
:101B1000803F04EB924202D04B689B0301D5054BFA
:101B200000E0024B5A43CAE70010024000127A005C
:101B30002000002000093D0010B5064CE06A8047F7
:101B40004FF4FA70FFF778FA216BBDE8104002A05D
:101B5000084700003000002041542B524553544F99
:101B600052450D0A000000007047000070B50546A0
:101B700005480C4681880068FEF7FFFAE1B2284666
:101B8000BDE8704000F0EEBA3000002010B5044609
:101B9000044881880068FEF7F0FA2046BDE810404E
:101BA00000F0FCBA3000002002210148FFF7FCBB26
:101BB000D04C00080CB50021264801910091026824
:101BC00042F4803202604FF4A063026802F40032F3
:101BD0000092019A521C0192009A12B9019A9A42FB
:101BE000F3D10268920333D5012100911A490A68A2
:101BF00042F010020A600A6822F003020A600A68D2
:101C000042F002020A6041684160416841604168F7
:101C100041F480614160416821F47C114160416878
:101C200041F4E8114160016841F080710160016890
:101C30008901FCD5416821F003014160416841F010
:101C4000020141604168C1F381010229FAD10CBD52
:101C500000910CBD00100240002002402DE9F04729
:101C6000454C0027164688468146A781FEF7A2FA12
:101C70000546002E03D000BF4FF0010001E04FF0F9
:101C80000000284400F1040002D04FF0820101E07E
:101C90004FF0A201A389A268D154A18901F10101E9
:101CA000A4F80C104FEAE07100EB516222F07F01C2
:101CB000A0EB0100C1B24FEAE210002802DD00BF34
:101CC00041F08001A389A268D154A18901F10101E9
:101CD000A181E7DCA06889B24754A0894FF00101D7
:101CE00000F1010080B2A081A2681154A0894FEADE
:101CF000152100F1010080B2A081A2681154A089D1
:101D00002A4600F1010080B2A081A1680D54A0898B
:101D100000F1010080B2A081A16808444946FEF7A5
:101D200013FAA089284480B2A0812EB1A26802F8DB
:101D30000080A089401CA0810125A1882068FEF7B1
:101D40001CFAA189A068FFF72FFB1D2620680178E7
:101D5000902902D14078032809D06420FFF76CF95C
:101D6000761EF6B2F2D26D1EEDB2E6D215B10120AA
:101D7000BDE8F0870020FBE76C0000204FF0E02179
:101D80000428086903D020F004000861704740F07F
:101D90000400FAE702480168491C0160704700002E
:101DA000140000200F4810B5016841F001010160E6
:101DB00041680D4A1140416001680C4A11400160C0
:101DC000016821F480210160416821F4FE01416035
:101DD0004FF41F018160FFF7EDFE05494FF00060F1
:101DE000086010BD001002400000FFF8FFFFF6FE83
:101DF00008ED00E000B585B06846FFF755FE1049D4
:101E00000098B0FBF1F00F4948600420FFF7B6FFDF
:101E100000984FF47A71B0FBF1F0B0F1807F0DD2F1
:101E200020F07F414FF0E020491E4161064AF02139
:101E300082F8141D002181610721016105B000BDF8
:101E400040420F00140000200FE000E02DE9F041B7
:101E5000124D40F22551284600F03CF82E1D104C42
:101E6000002758B13088C1B2A1702078FF2800D374
:101E700027700C4A20781154401C207040F22441F5
:101E8000284600F027F8002806D030882888064920
:101E9000A070207888802770BDE8F0810044004061
:101EA00000000020CC0100206C000020C94301800C
:101EB00070470029818902D041F4005101E021F4EA
:101EC0000051818170470246002012880A4200D0EA
:101ED0000120704730B501F01F0201240025C1F335
:101EE000421304FA02F2012B0FD0022B0FD0838A87
:101EF0004FEA11210088134204FA01F400EA0400B9
:101F000001D000B10125284630BD8389F0E7038A5E
:101F1000EEE710B5C1F3421301F01F040121A14007
:101F2000012B07D0022B07D01430002A026805D0FD
:101F30000A4304E00C30F8E71030F6E78A43026009
:101F400010BD000030B50446008A85B00D464CF641
:101F5000FF710840E98801432182A1894EF6F31000
:101F60000140A8882A8910436A890A431043A08146
:101F7000A08A4FF6FF410840A9890143A182684623
:101F8000FFF792FD1948844201D1039800E00298BE
:101F9000A189090400EBC00101EB0010296801D5FB
:101FA000490000E08900B0FBF1F06422B0FBF2F1DF
:101FB00009010B096FF018056B4300EB8300A3893F
:101FC0001D044FF0320306D503EBC000B0FBF2F066
:101FD00000F0070005E003EB0010B0FBF2F000F0AA
:101FE0000F000843208105B030BD000000380140DB
:101FF000C1F3080181807047FEE7000030B5044658
:1020000085B0012144F20400FFF736FD4FF4007063
:10201000ADF8100003208DF812001820164D8DF831
:10202000130004A92846FFF769F82815ADF8100039
:1020300004208DF8130004A92846FFF75FF800205C
:10204000ADF804000094ADF80600ADF80800ADF856
:102050000C000C20094CADF80A0069462046FFF739
:1020600071FF01212046FFF724FF40212046FFF7A2
:102070001DFF05B030BD00000008014000380140E0
:1020800010B5064C01462046FFF7B2FF402120461E
:10209000FFF719FF0028F9D010BD000000380140FB
:1020A00010B5044602E0641CFFF7EAFF2078002820
:1020B000F9D110BD70B5054686B001210420FFF7A7
:1020C000DBFC01214804FFF7CBFC0424ADF81040F1
:1020D00018208DF813000320204E8DF8120004A95B
:1020E0003046FFF70BF80820ADF810008DF81340CC
:1020F00004A93046FFF702F80020ADF80400ADF85F
:102100000600ADF80800ADF80C000C20144CADF83A
:102110000A00009569462046FFF714FF012120467A
:10212000FFF7C7FE012240F225512046FFF7F1FEDE
:10213000012240F224412046FFF7EBFE26208DF8D5
:10214000140001208DF815008DF816008DF8170089
:1021500005A8FFF72DF906B070BD0000000801408A
:102160000044004070B50D46044603E014F8010B2E
:1021700000F004F86D1EEDB2F8D270BD10B5064C3B
:1021800001462046FFF734FF40212046FFF79BFE23
:102190000028F9D010BD00000044004010B50446EE
:1021A00002E0641CFFF7EAFF20780028F9D110BD97
:1021B0000FB4054B10B503A9044A029800F0EEF8DD
:1021C00010BC5DF814FB0000D52A00089800002020
:1021D0000FB4084B10B504A902AA039800F0DEF86A
:1021E000044602A9002000F070FC204610BC5DF8F7
:1021F00014FB0000CB2A000802E008C8121F08C127
:10220000002AFAD170477047002001E001C1121F77
:10221000002AFBD1704700002DE9FF5F82B000214A
:10222000DDE90430020DDDF840B0034318D044F678
:102230001050A2F2FF3242431514119801281FD00A
:10224000A5EB0B00401C5FEA000A4FF000064E4F62
:10225000DFF83891B046504615D5CAF1000413E0B6
:10226000119801244AA3012801D16FEA0B010298B9
:10227000119AC0E90031C0E9024206B0BDE8F09F02
:10228000CBF10000DFE704460021404A491842EB49
:102290000450CDE9001012E0E00707D032463B467B
:1022A00040464946FEF714F98046894632463B4689
:1022B00010461946FEF70CF906460F466410002C2E
:1022C000EAD1DDE90401DDE90023BAF1000F06DA05
:1022D000FEF7FEF842464B46FEF7FAF805E0FEF739
:1022E00069F942464B46FEF765F904460E46002260
:1022F000284BFEF7E7F903D84FF0FF30014607E01F
:102300000022254B20463146FEF73BF8FEF7C1F987
:10231000102409E0002C0ADB0A220023FDF7C9FF84
:10232000039B30321A55641E50EA0102F2D1641C3C
:10233000039AC4F111031444119A012A03D0012213
:1023400008430DD10AE0084304D000204FF0110BE0
:10235000119072E7A3EB0B056D1E0DE05B4504DDEC
:102360004FF0000205F1010504E003DA4FF000022E
:10237000A5F10105002AECD002981199C0E90231BB
:10238000C0E9004579E70000000014400000F03F7C
:10239000300000000000F0430000E03F2DE9FF4F57
:1023A00095B09B468946064600250FE2252877D141
:1023B00000242746F84A0121059400E0044316F85A
:1023C000013F203B01FA03F01042F7D130782A2870
:1023D00011D06FF02F033078A0F13002092A16D8FF
:1023E000059A44F0020402EB820203EB420210441D
:1023F000761C0590EFE759F8042B0592002A03DAC2
:10240000504244F40054059044F00204761C3078A5
:102410002E2816D116F8010F44F004042A280DD0F6
:102420006FF02F023078A0F13003092B09D807EBA9
:10243000870302EB4303C718761CF3E759F8047BC4
:10244000761C30786C280FD006DC4C2817D0682812
:102450000DD06A2814D104E0742810D07A280FD146
:102460000DE044F400140AE044F4801401E044F464
:1024700040147278824202D104F58014761C761CD6
:10248000307866280BD013DC582877D009DC002878
:1024900075D04528F6D04628F4D047281AD19DE1BA
:1024A00018E0632835D0642879D0652812D195E1E9
:1024B000702873D008DC6728F1D069286FD06E28A7
:1024C0000DD06F2806D1B5E073282CD0752875D0B3
:1024D000782874D05A46179990476D1C75E1C4F35B
:1024E0000250022809D003280DD0D9F80010042882
:1024F0000DD00D6009F1040967E1D9F80010EA1761
:10250000C1E90052F6E7D9F800100D80F2E70D702E
:10251000F0E719F8041B8DF8001000208DF8010079
:10252000EA46012003E059F804AB4FF0FF306107A1
:102530004FF0000102D40DE008F101018846B942D4
:102540000FDA8045F8DB1AF808100029F4D108E00A
:1025500008F1010188468142FADB1AF808100029C7
:10256000F6D105985B46A0EB080721463846179A36
:1025700000F094FA284400EB080507E04DE029E15B
:102580000DE01AF8010B5A4617999047B8F1010867
:10259000F7D25B4621463846179A13E142E00A22F9
:1025A0000092C4F302524FF0000A022A08D059F8F0
:1025B00004CB032A4FEAEC710AD00DE029E02AE0AF
:1025C00009F1070121F00702F2E802C1914609E092
:1025D0000FFA8CFC4FEAEC71042A03D14FFA8CFC01
:1025E0004FEAEC71002907DA0A460021DCF1000C01
:1025F00061EB02012D2202E0220504D52B228DF889
:102600000420012203E0E20701D02022F7E79046F0
:1026100059E00A2102E010220DE010214FF0000ADB
:1026200000910BE010224FF0000A44F00404082748
:10263000009203E008224FF0000A0092C4F3025215
:10264000022A05D059F804CB0021032A08D009E05A
:1026500009F1070121F00702F2E802C1914605E005
:102660001FFA8CFC042A01D10CF0FF0C4FF000087B
:10267000220728D5702806D0009B83F0100353EA68
:102680000A0305D00EE040228DF80420012208E064
:102690005CEA010206D030228DF804208DF8050096
:1026A00002229046009B83F0080353EA0A030AD1F2
:1026B0005CEA010201D1620705D530228DF80420C1
:1026C0004FF001087F1E582804D034A003900EA8B4
:1026D00002900DE036A0F9E753466046009AFDF7F8
:1026E000E8FD84460398825C0298401E02900270C6
:1026F0005CEA0100F0D1029806A9081A00F1200A4C
:10270000600702D524F4803400E00127574502DD3C
:10271000A7EB0A0000E0002000EB0A0100900598FA
:102720004144401A0590E00306D45B462146179ABF
:10273000059800F0B3F90544002706E001A85A46C1
:10274000C05D179990476D1C7F1C4745F6DBE00381
:102750000CD55B462146179A059800F09FF9054471
:1027600004E030205A46179990476D1C0099481E86
:1027700000900029F5DC08E0029802995A4600789A
:10278000491C0291179990476D1CBAF10001AAF1FA
:10279000010AF1DC65E10000092801003031323323
:1027A000343536373839616263646566000000008D
:1027B0003031323334353637383941424344454677
:1027C0000000000000F058F90544761C307800281D
:1027D0007FF4ECAD19B02846BDE8F08F620700D455
:1027E000062709F1070222F0070CFCE80223E14664
:1027F00003F000485FEA080C02D00FF2702C0DE0E5
:102800005FEA045C02D50FF2682C07E05FEAC47C43
:1028100002D00FF2602C01E0AFF2700C4FF0FF38E5
:1028200023F00043CDF850C065280CD006DC4528C5
:1028300009D046281DD047283DD13DE0662818D054
:1028400067287ED138E00021112F01DB112000E044
:10285000781CCDE9000106A90EA8FFF7DDFCDDE933
:102860000F010E9A03910021009207F1010A0491D1
:102870004DE04FF000400097CDE9011006A90EA8E9
:10288000FFF7CAFCDDE90F0203920E9B11990022AB
:10289000DDF80CA00093049211B9791C00EB010A39
:1028A000B7EB0A0004D4C0F1FF3007F1010A04902D
:1028B000AAEB0700019044E0012F00DA0127002174
:1028C000112F01DD112000E03846CDE9000106A9F5
:1028D0000EA8FFF7A1FCDDE90F010E9A039100217C
:1028E00004910092BA4621070CD40399514500DAAD
:1028F0008A46BAF1010F05DD009AAAF10101515C87
:10290000302908D0B84202DA10F1040F06DA0121AA
:10291000CDE9011015E0AAF10101E9E7002805DC85
:10292000049901440491AAEB000102E0411C5145C5
:1029300000DD8A460499401A401C01904FF0004087
:102940000290200704D40198504501DBCDF80480A3
:1029500000208DF84F0002980DF14F07B0F1004FA5
:1029600025D02B200E9002984FF0020800280CDA98
:10297000404202902D200E9007E00A210298FDF7B8
:1029800082FC3031029007F8011DB8F10001A8F176
:102990000108F2DC02980028EFD1791E0E98087029
:1029A000307800F0200040F0450007F8020D12A832
:1029B000C01B00F107081498007800B1012000EB5B
:1029C0000A01019801EBE07105984144401A401E4C
:1029D0000590E00306D45B462146179A059800F05F
:1029E0005DF805441498007818B15A461799904735
:1029F0006D1CE00324D55B462146179A059800F02C
:102A00004DF805441CE00498002807DBDDE90301CC
:102A1000884203DD0098405C179901E01799302047
:102A20005A469047049805F10105401C049001980E
:102A3000401E019004D12E205A46179990476D1CD4
:102A4000BAF10001AAF1010ADDDC05E017F8010B7B
:102A50005A46179990476D1CB8F10001A8F101087A
:102A6000F4DC5B462146179A0598ABE62D00000082
:102A70002B000000200000002DE9F0410446002555
:102A80001E461746880404D405E039462020B04786
:102A90006D1C641EF9D52846BDE8F0812DE9F04192
:102AA000044600251E469046C80301D5302700E0A5
:102AB0002027880404D505E041463846B0476D1C00
:102AC000641EF9D52846BDE8F0810A68531C0B60E6
:102AD0001070704770B5074D0446C1B22846FFF725
:102AE00087FA40212846FFF7EEF90028F9D0204662
:102AF00070BD0000003801401CB5002635464FF47B
:102B0000A060FEF787FCFFF775F9FEF7DBFBFEF729
:102B1000BBFBFDF745FF1821BC48FDF7A1FF4FF4B3
:102B2000E1342046FFF76AFA2046FFF7C3FAFEF7C2
:102B3000B3FCB7A0FFF7B4FAC820FEF77DFADFF8C0
:102B4000E492DFF8E4A24FF00008B04A89F801806F
:102B50004FF4807B3032DAF8144059465B4602F578
:102B60008070A047012410274FF0080360B1CDE921
:102B700000740021ADA20846FEF74DFE99F8011041
:102B8000491C89F8011008E0CDE900740021ABA2CE
:102B90000846FEF740FE89F80180FEF777FD99F8B8
:102BA000010001281FD1DAF81C20A8A1AAA0904793
:102BB0004FF0080360B1CDE90074ABA210210020F2
:102BC000FEF729FE99F80110491C89F8011008E068
:102BD000CDE90074A8A210210020FEF71CFE89F8A0
:102BE0000180FEF753FD99F80100022821D1DAF89F
:102BF000203040F25B72A5A1B1A098474FF00803C6
:102C000060B1CDE90074AFA220210020FEF703FEE1
:102C100099F80110491C89F8011008E0CDE9007409
:102C2000ADA220210020FEF7F6FD89F80180FEF715
:102C30002DFD99F80100DFF8B0A2032829D1734ACD
:102C4000DAF810C0303259465B4602F58070E04732
:102C5000DAF81430A5A2B0A1B5A098474FF0080348
:102C600060B1CDE90074C0A230210020FEF7D3FD91
:102C700099F80110491C89F8011008E0CDE90074A9
:102C8000BDA230210020FEF7C6FD89F80180FEF7C5
:102C9000FDFC99F80100042815D1FEF7F5FB01228F
:102CA000DAF818300021B9A098474FF0080308B1AE
:102CB000C4A200E0C7A2CDE9007400210846FEF7D7
:102CC000AAFDFEF7E3FC4FF47A70FEF7B5F9FEF7C4
:102CD000DBFBCDE90074BB460823C3A20021202002
:102CE000FEF799FDCDE900740823C2A2102100204F
:102CF000FEF791FDCDE900740823C2A22021002037
:102D0000FEF789FDCDE900740823C2A2302100201E
:102D1000FEF781FDFEF7BAFC00204C4689F8010061
:102D2000D146761CF6B2C82E3ED30026FDF7CAFE69
:102D3000E088FEF779FBFDF776FABA49FDF741FA2C
:102D4000E0604FF00808CDE9008B5F46042322893C
:102D500010213020FEF728FDE068FDF76DFACDE97F
:102D60000087C2B2022320213020FEF71DFDAE49AC
:102D7000E068FDF726FAFDF75FFA80B20A21B0FBA2
:102D8000F1F201FB1202CDE9008701232021482046
:102D9000FEF70AFDCDE9008730210423A28808460A
:102DA000FEF702FDFEF772FC6D1CADB2B5F5FA7FC1
:102DB0001AD30025FDF7B6F96FF07F4190FBF1F2D1
:102DC00001FB1207E068FDF74BFAA2880B46CDE93C
:102DD0000072024695499648FFF7FAF9D9F81C3077
:102DE0000022934993A09847B9F804104F4641B187
:102DF0003868FEF787FAB9883868FDF7BEF9002011
:102E0000B8800A20FEF718F98BE700009C0000202C
:102E10002020757361727431206973206F6B210DEE
:102E20000A00000000000020300000204E657420E1
:102E3000496E6974204F4B21000000004E657420DC
:102E4000496E6974204572726F72210031383736CD
:102E5000383830333930390054656E64615F32423E
:102E60003242323000000000436F6E6E63657420A2
:102E70004150204F4B210000436F6E6E63657420FC
:102E80004150204572726F722100000061317567F8
:102E9000424E6E694647552E696F742D61732D6DD4
:102EA0007174742E636E2D7368616E676861692E2C
:102EB000616C6979756E63732E636F6D000000003D
:102EC00054435000436F6E6574205365727665728B
:102ED000204F4B210000000053657276657220453B
:102EE00072726F72210000006C000020623434376F
:102EF0006239663236393338643865626136623237
:102F000061343837383036366161653931383339B4
:102F1000363030630000000046592D53544D333293
:102F20002661317567424E6E6946475500000000C4
:102F30003132333435367C7365637572656D6F6419
:102F4000653D332C7369676E6D6574686F643D68A9
:102F50006D6163736861312C74696D657374616D43
:102F6000703D3738397C0000456E746572204D51D4
:102F70005454204F4B210000456E746572204D5112
:102F80005454204572726F72000000002F737973E1
:102F90002F61317567424E6E694647552F46592D50
:102FA00053544D33322F7468696E672F7365727690
:102FB0006963652F70726F70657274792F736574B1
:102FC00000000000537562736372696265204F4BA5
:102FD0002100000053756273637269626520457257
:102FE000726F7221000000004D617273205465639E
:102FF00068000000205643433A2030303030206DC6
:103000005600000054656D703A2030302E30204359
:1030100000000000204C55583A203030303020203D
:1030200000000000CDCCCC3D00002041D44C000875
:10303000CC0200202F7379732F61317567424E6E79
:10304000694647552F46592D53544D33322F7468D6
:10305000696E672F6576656E742F70726F7065721A
:1030600074792F706F7374000246012000E05043A2
:10307000491EC9B2FBD27047320F00002B0F00006F
:10308000220F0000180F00000D0F0000010F0000BC
:10309000F40E0000E70E0000D90E0000CA0E00007A
:1030A000BA0E0000AA0E00009A0E0000890E000061
:1030B000770E0000650E0000530E00003F0E00006A
:1030C0002C0E0000170E0000020E0000ED0D000097
:1030D000D60D0000C00D0000A80D00008F0D0000EF
:1030E000760D00005C0D0000420D0000260D000072
:1030F0000A0D0000ED0C0000CF0C0000B00C000029
:10310000910C0000710C0000510C0000300C00000C
:103110000E0C0000EC0B0000C90B0000A60B000019
:10312000830B0000600B00003C0B0000190B00003B
:10313000F50A0000D10A0000AD0A0000890A00006B
:10314000650A0000610A0000500A0000350A00000C
:10315000110A0000E8090000BB0900008A0900000C
:103160005809000025090000F2080000BF0800000F
:103170008D0800005C0800002D080000FF0700001B
:10318000D3070000A80700007E07000056070000D4
:10319000300700000A070000E5060000C106000035
:1031A0009E0600007B06000059060000370600005E
:1031B00016060000F5050000D4050000B305000068
:1031C000930500007405000054050000350500005B
:1031D00016050000F8040000DA040000BC0400003A
:1031E0009F04000082040000660400004A040000FE
:1031F0002E04000012040000F6030000DA030000B1
:10320000BE030000A2030000860300007903000053
:103210006B0300005A030000480300003403000061
:10322000210300000C030000F8020000E40200008B
:10323000D0020000BD020000AA02000098020000B7
:1032400087020000770200006702000058020000B9
:103250004A0200003D02000030020000240200008B
:10326000180200000D02000001020000F70100003A
:10327000EC010000E1010000D7010000CC010000DA
:10328000C2010000B7010000AD010000A201000072
:10329000980100008D01000082010000770100000C
:1032A0006D01000062010000580100004E010000A5
:1032B000440100003B010000320100002A0100002F
:1032C000230100001D010000170100001301000090
:1032D00010010000000000000000000060FA600023
:1032E00000E0C000E0C000247E247E240024D456E8
:1032F000480000C6C81026C6006C926A040A000086
:10330000E0C0000000007C8200000000827C000021
:1033100000107C387C100010107C10100000070694
:10332000000000101010101000000606000000043D
:1033300008102040007C8A92A27C000042FE02001D
:1033400000468A92926200449292926C0018284839
:10335000FE0800F49292928C003C5292920C0080F3
:103360008E90A0C0006C9292926C006092929478C1
:1033700000003636000000003736000000102844F8
:1033800082000024242424240000824428100040C9
:10339000809A9060007C82BAAA78007E8888887EB5
:1033A00000FE9292926C007C8282824400FE8282B5
:1033B000827C00FE9292928200FE90909080007C2F
:1033C0008292925E00FE101010FE000082FE8200CB
:1033D000000C020202FC00FE1028448200FE0202E1
:1033E000020200FE402040FE00FE402010FE007C55
:1033F0008282827C00FE90909060007C828A847A37
:1034000000FE9090986600649292924C008080FE3C
:10341000808000FC020202FC00F8040204F800FCB8
:10342000023C02FC00C6281028C600E0100E10E086
:10343000008E92A2C2000000FE8282000040201096
:10344000080400008282FE0000204080402001012C
:10345000010101010000C0E0000000042A2A2A1E28
:1034600000FE2222221C001C22222214001C2222E6
:1034700022FE001C2A2A2A1000107E9090000018BC
:103480002525253E00FE20201E00000000BE020073
:1034900000020121BE0000FE08142200000000FE10
:1034A0000200003E2018201E003E20201E00001CAE
:1034B0002222221C003F2222221C001C2222223F08
:1034C00000221E22201000102A2A2A0400207C221A
:1034D0002400003C02043E00003804020438003C92
:1034E000060C063C003608083600003905063C008C
:1034F00000262A2A320000107C828200000000EEA2
:103500000000000082827C100040804080000000AB
:1035100000000000000000000000000000003F402C
:1035200000000000000000003000400030004000BB
:10353000000009000BC03D000BC03D00090018C091
:1035400024407FE0224031800000180024C01B008E
:103550000D803240018003801C4027401C800740C2
:1035600000401000600000000000000000000000AB
:10357000000000001F80204040200000402020402C
:103580001F8000000000090006001F8006000900DF
:103590000000040004003F8004000400000000104C
:1035A00000600000000000000000040004000400AF
:1035B00004000400000000000040000000000000C3
:1035C0000000002001C006003800400000001F80FD
:1035D0002040204020401F800000000010403FC0DD
:1035E00000400000000018C0214022402440184044
:1035F000000010802040244024401B800000020076
:103600000D0011003FC0014000003C8024402440D8
:103610002440238000001F80244024403440038045
:1036200000003000200027C03800200000001B8070
:103630002440244024401B8000001C0022C0224063
:1036400022401F8000000000000008400000000031
:103650000000000000000460000000000000000006
:1036600004000A0011002080404009000900090000
:1036700009000900000000004040208011000A00FD
:1036800004001800200023402400180000001F80C0
:103690002040274029401F400000004007C039005B
:1036A0000F0001C0004020403FC0244024401B8048
:1036B00000001F802040204020403080000020403B
:1036C0003FC0204020401F80000020403FC02440D9
:1036D0002E4030C0000020403FC024402E0030006B
:1036E00000000F0010802040224033800200204064
:1036F0003FC0040004003FC02040204020403FC0A5
:103700002040204000000060202020203FC02000FA
:10371000200020403FC024400B0030C0204020400B
:103720003FC020400040004000C03FC03C0003C0FC
:103730003C003FC0000020403FC00C4023003FC081
:1037400020001F802040204020401F80000020409B
:103750003FC024402400180000001F802140214069
:1037600020E01FA0000020403FC02440260019C0D8
:10377000004018C024402440224031800000300026
:1037800020403FC020403000000020003F8000402B
:1037900000403F80200020003E0001C007003800AC
:1037A0002000380007C03C0007C03800000020405F
:1037B00039C0060039C0204000002000384007C052
:1037C000384020000000304021C02640384020C052
:1037D0000000000000007FE04020402000000000CA
:1037E00070000C00038000400000000040204020DA
:1037F0007FE00000000000002000400020000000EA
:103800000000001000100010001000100010000058
:1038100000004000000000000000000002800540A1
:10382000054003C0004020003FC004400440038026
:103830000000000003800440044006400000000037
:103840000380044024403FC0004000000380054046
:10385000054003400000000004401FC024402440F5
:103860002000000002E005500550065004202040D2
:103870003FC00440040003C000400000044027C0D3
:1038800000400000000000100010041027E00000BD
:10389000000020403FC00140070004C00440204019
:1038A00020403FC000400040000007C0040007C0A7
:1038B000040003C00000044007C00440040003C02B
:1038C0000040000003800440044003800000041016
:1038D00007F004500440038000000000038004400F
:1038E000045007F00010044007C002400400040028
:1038F0000000000006400540054004C00000000034
:1039000004001F80044000400000040007800040C5
:10391000044007C000400400070004C00180060006
:103920000400060001C0070001C0060000000440BA
:1039300006C0010006C0044000000410071004E0A7
:103940000180060004000000044005C00640044059
:1039500000000000000004007BE0402000000000A8
:1039600000000000FFF000000000000040207BE0AD
:103970000400000000004000800040002000200003
:1039800040000000000000000000000000000000F7
:1039900000000000000000001FCC0000000000003C
:1039A0000000000008003000400008003000400027
:1039B00000000000022003FC1E20022003FC1E2049
:1039C000000000000E18110411043FFF10840C7851
:1039D00000000F00108C0F3001C0067818840078AA
:1039E000000000780F8410C411340E9800E40084A5
:1039F0000008000048007000000000000000000007
:103A0000000000000000000007E018182004400239
:103A10000000000040022004181807E00000000029
:103A200000000240024001800FF00180024002408D
:103A30000000000000800080008007F0008000800F
:103A4000008000000009000E0000000000000000DF
:103A50000000000000800080008000800080008066
:103A600000000000000C000C00000000000000003E
:103A7000000000000006001800E003001C00200009
:103A80000000000007F0080810041004080807F000
:103A9000000000000000080408041FFC00040004EB
:103AA000000000000E0C10141024104410840F0CA1
:103AB000000000000C1810041084108411440E380B
:103AC00000000000006001A002240C241FFC002460
:103AD000002400001F9811041104110410881070B4
:103AE0000000000007F0088811041104090400F820
:103AF0000000000018001000107C11801600180053
:103B0000000000000E3811441084108411440E3857
:103B1000000000000F80104810441044088807F08F
:103B20000000000000000000030C030C0000000077
:103B3000000000000000000001070000000000007D
:103B4000000000000080014002200410080810045A
:103B500000000000024002400240024002400240D9
:103B6000000000001004080804100220014000803A
:103B7000000000000E001200100C10EC11000E00EE
:103B8000000003E00C1813E4141417F4081407E8F9
:103B900000000004003C03C41C40074000E4001C7B
:103BA000000410041FFC1104110411040E8800709D
:103BB000000003E00C1810041004100410081C107E
:103BC000000010041FFC100410041004080807F083
:103BD000000010041FFC1104110417C4100408187D
:103BE000000010041FFC1104110017C01000080091
:103BF000000003E00C181004100410441C7800406E
:103C0000000010041FFC10840080008010841FFC42
:103C100010040000100410041FFC10041004000025
:103C2000000000030001100110011FFE1000100031
:103C3000000010041FFC110403801464181C1004FD
:103C4000000010041FFC1004000400040004000C19
:103C5000000010041FFC1F80007C1F801FFC10044C
:103C6000000010041FFC0C04030000E010181FFCEF
:103C7000100007F00808100410041004080807F0EA
:103C8000000010041FFC10841080108010800F00B2
:103C9000000007F0080810141014100C080A07F2AE
:103CA000000010041FFC1104110011C011300E0C93
:103CB000000400000E1C11041084108410441C38F1
:103CC00000001800100010041FFC10041000180061
:103CD000000010001FF810040004000410041FF876
:103CE000100010001E0011E0001C007013801C006A
:103CF000100010001FC0007C1F80007C1FC010003F
:103D000000001004180C163401C001C01634180C41
:103D1000100410001C00130400FC13041C0010000D
:103D200000000804101C1064108413041C041018F4
:103D300000000000000000007FFE40024002400240
:103D40000000000020001C0003800060001C000335
:103D5000000000004002400240027FFE0000000020
:103D60000000000000002000400040002000000093
:103D7000000000010001000100010001000100013C
:103D80000001000040004000200000000000000092
:103D900000000000009801240124014800FC0004F8
:103DA000000008000FFC0088010401040088007076
:103DB0000000000000700088010401040104008874
:103DC0000000000000F801040104010409080FFCD0
:103DD0000004000000F8012401240124012400E86B
:103DE000000000000104010407FC090409040400A8
:103DF0000000000000D601290129012901C901069E
:103E0000000008040FFC008401000100010400FC14
:103E1000000400000104190419FC0004000400005F
:103E200000000000000300010101190119FE00005B
:103E3000000008040FFC002400600194010C010440
:103E400000000000080408041FFC00040004000037
:103E50000000010401FC0104010001FC0104010057
:103E600000FC010401FC008401000100010400FCCD
:103E70000004000000F8010401040104010400F83A
:103E80000000010101FF00890104010400880070A5
:103E9000000000000070008801040104008901FF97
:103EA00000010104010401FC0084010401000180FF
:103EB0000000000000CC0124012401240124019809
:103EC000000000000100010007F8010401040008DF
:103ED0000000010001F8000400040004010801FCD6
:103EE0000004010001C00130000C013001C00100DC
:103EF000000001800170000C013001E0001C016035
:103F0000018000000104018C01700074018C010427
:103F10000000010001810161001E001801600180A4
:103F2000010000000184010C013401440184010CF2
:103F30000000000000000000000000803F7C400204
:103F400040020000000000000000FFFF0000000031
:103F50000000400240023F7C0080000000000000A2
:103F60000000000000000000000000000000000051
:103F70000000000000000000000000000000000041
:103F80000000000000000000000000000000000031
:103F90000000000000000000000000000000000021
:103FA00000000000000F80380FFE380F803800003E
:103FB0000000000000000000000000000000000001
:103FC0000100000600000C0000380000310000066F
:103FD00000000C000038000030000000000000006D
:103FE000000061800067F807F9800061800061804F
:103FF0000061800061800067F807F980006180003F
:10400000000000000000000001C0E003E0F0063006
:10401000080418081FFFFE040E080787F00381E05C
:1040200000000000000001F000060C000404080677
:104030000C7001F9C0000E00003BE000EC1807080E
:1040400008040C180003E00000000001E00007F085
:1040500003F818041C0804170807E1D003C0E000A7
:1040600023B0003C08002008000010000000000001
:10407000000100003100003200001C0000000000C0
:104080000000000000000000000000000000000030
:104090000000000000000000000000000000000020
:1040A00000007F0001FFC00780F00C001810000422
:1040B0002000020000000000002000021000040C9C
:1040C00000180780F001FFC0007F00000000000022
:1040D000000000000000000000000000000042009E
:1040E000006600006600003C0000180003FFC000EE
:1040F0001800003C0000660000660000420000005E
:104100000000080000080000080000080000080087
:1041100001FFC000080000080000080000080000BF
:104120000800000000000001000031000032000023
:104130001C00000000000000000000000000000063
:10414000000000000000000000000800000800005F
:10415000080000080000080000080000080000082F
:10416000000008000008000000000000000000003F
:104170000000380000380000380000000000000097
:10418000000000000000000000000000000000002F
:104190000000000600001C000070000180000E00FE
:1041A00000380000C0000700001C000030000000C4
:1041B0000000000000007F8001FFE0038070060027
:1041C0001804000804000806001803807001FFE0CE
:1041D000007F8000000000000000000001000801D6
:1041E000000801000803FFF807FFF80000080000BE
:1041F0000800000800000000000000000001C038B6
:1042000002C0580400980401180402180404180697
:104210001C1803F81801E0F800000000000000007E
:104220000001C0E003C0F004000804080804080806
:1042300006180803F41801E7F00001E00000000090
:104240000000000000000300000D000011000061EC
:104250000000810803010807FFF80FFFF8000108BC
:104260000001080000000000000000E007FCD0068C
:104270000808061008061008061008061838060F69
:10428000F00607C0000000000000000000003F80B2
:1042900001FFE00384300208180410080410080429
:1042A0001008071810030FF00007C00000000000FE
:1042B0000000000003C0000700000600000600F830
:1042C0000607F806180006E00007000006000000D8
:1042D000000000000001E1E003F7F00634100418CC
:1042E00008041808040C08040C0806161803F3F058
:1042F00001C1E000000000000000F80003FC3003F2
:104300000638040208040208040208040410030822
:10431000F001FFC0007F000000000000000000006E
:10432000000000000000000000007038007038003D
:1043300070380000000000000000000000000000D5
:104340000000000000000000000000000000301A23
:1043500000301C0000000000000000000000000011
:10436000000000000000000000080000140000220F
:104370000000410000808001004002002004001085
:1043800008000800000000000000210000210000DB
:104390002100002100002100002100002100002157
:1043A00000002100002100000000000000000000CB
:1043B0000800080400100200200100400080800076
:1043C000410000220000140000080000000000006E
:1043D0000003C00004C000040000080038080F38C3
:1043E0000808380810000C300007E00003C0000087
:1043F0000000000000003F8000FFE0038070020F1B
:104400001006708804C088048308047F8802C09066
:1044100003012000FE400000080000180001F80021
:104420003E0801C20007020007E20000FE00001F74
:10443000C80001F800003800000804000807FFF871
:1044400007FFF80408080408080408080408080618
:10445000180803F41801E7F00001E0000000000074
:1044600000003F8001FFE003807002001804000894
:104470000400080400080400100600200780C000A3
:10448000000004000807FFF807FFF8040008040014
:104490000804000804001802001003807001FFE007
:1044A000007F8000000004000807FFF807FFF80401
:1044B0000808040808040808040808043E08040062
:1044C0000806001801006000000004000807FFF85B
:1044D00007FFF804080804080004080004080004A2
:1044E0003E00060000060000018000000000000001
:1044F00000003F8001FFE003807006001804000800
:104500000402080402080203F00783F0000200001E
:10451000020004000807FFF807FFF8040808000875
:104520000000080000080000080004080807FFF861
:1045300007FFF80400080000000000000400080461
:10454000000804000807FFF807FFF804000804004B
:104550000804000800000000000000000000000641
:10456000000007000001040001040001040003072B
:10457000FFFE07FFFC04000004000004000004002C
:104580000807FFF807FFF8040C08001800003E00B9
:1045900004C7800503C80600F804003804001800AA
:1045A000000804000807FFF807FFF80400080000EF
:1045B00008000008000008000008000008000018BB
:1045C00000006000000004000807FFF807800807EB
:1045D000FC00007FC00003F80007C00078000780DF
:1045E0000807FFF807FFF804000804000807FFF8B1
:1045F00007000803C00000E000003800001E0000B3
:1046000007000001C00400F007FFF80400000000EC
:1046100000007F8001FFE00380700600180400089E
:1046200004000806001803003001FFE0007F80004E
:10463000000004000807FFF807FFF804040804045A
:1046400000040400040400040400060C0003F80045
:1046500001F000000000000000007F8001FFE00387
:1046600080700600880400880400C806003C03002F
:104670003E01FFE6007F8400000004000807FFF809
:1046800007FFF8040808040800040C00040F0004E5
:104690000BC00610F003F03801E00800000800002D
:1046A0000001E0F803F03006301004180804180880
:1046B000040C08040C080206180207F00781E00049
:1046C0000000018000060000040000040000040057
:1046D0000807FFF807FFF8040008040000040000C2
:1046E00006000001800004000007FFE007FFF0045F
:1046F0000018000008000008000008000008000082
:104700000804001007FFE004000004000006000099
:1047100007E00007FE00041FE00001F80000380079
:1047200001E0043E0007C000060000040000040091
:104730000007E00007FFC0041FF80007C007F800EB
:1047400007FF80043FF80007C004F80007000004DA
:10475000000000000004000806001807C07805F1FA
:10476000C8003E00001F800463E80780F8060018B8
:104770000400080000000400000600000780000795
:10478000E008047C08001FF80007F800180804E09F
:1047900008070000060000040000000000010008F7
:1047A0000600380400F80403E8040F08047C080538
:1047B000F00807C0080700180400600000000000AF
:1047C000000000000000000000000000003FFFFEAD
:1047D000200002200002200002200002200002002F
:1047E000000000000000000008000007000000C0FA
:1047F000000038000006000001C000003000000E7C
:104800000000010000000000000000002000022065
:1048100000022000022000022000023FFFFE0000F4
:104820000000000000000000000000000000000088
:1048300000000008000010000030000020000030E0
:104840000000100000080000000000000000000050
:104850000100000100000100000100000100000152
:104860000000010000010000010000010000010043
:1048700000010000000000000000002000002000F7
:104880000010000010000000000000000000000008
:104890000000000000000000000000F00019F80017
:1048A0001B18002208002608002408002410003FDE
:1048B000F8001FF8000008000018000000040000C5
:1048C00007FFF80FFFF0001818001008002008007C
:1048D0002008003018001FF0000FC000000000008A
:1048E000000007C0001FF00018300020080020085A
:1048F000002008003C08001C1000006000000000C0
:1049000000000000000007C0001FF0003818002061
:104910000800200800200804101007FFF80FFFF01F
:104920000000100000000000000000000007C000B0
:104930001FF0001230002218002208002208003266
:1049400008001E10000E20000000000000002000E3
:1049500000200800200801FFF803FFF806200804E3
:1049600020080420080720000300000000000000C9
:104970000000000E000E6E001FF30031B10020B1E8
:104980000020B1003191001F13002E1E00200E00E8
:10499000300000000004000807FFF80FFFF80010C7
:1049A00008002000002000002008003FF8001FF849
:1049B00000000800000000000000000000200800C7
:1049C0002008002008063FF8063FF8000008000015
:1049D00008000008000000000000000000000000C7
:1049E0000000030000030020010020010020030656
:1049F0003FFE063FFC000000000000000000000039
:104A00000004000807FFF80FFFF80001880003000A
:104A1000002FC00038F800203800200800000800EF
:104A2000000000000000000004000804000804006A
:104A30000807FFF80FFFF800000800000800000852
:104A4000000000000000002008003FF8003FF800D0
:104A50001008002000003FF8003FF8001008002078
:104A600000003FF8003FF8000008000000002008A8
:104A7000003FF8003FF80010080010000020000080
:104A80002008003FF8001FF80000080000000000A8
:104A9000000007C0000FF0001830003008002008A8
:104AA000002008003008001830000FF00007C00098
:104AB0000000000000002001003FFF003FFF001049
:104AC00011002009002008002008003038001FF0E5
:104AD000000FC00000000000000007C0001FF00031
:104AE0003818002008002008002009001011001FBD
:104AF000FF003FFF00000100000000200800200828
:104B0000002008003FF8003FF800080800100800E7
:104B100020080020000030000030000000000000ED
:104B200000000000000C78001E1800330800230865
:104B30000021080021880021980030F00038600032
:104B4000000000000000200000200000200000FF06
:104B5000F003FFF8002008002008002008000030C3
:104B6000000000000000000000002000003FF000F6
:104B70007FF8000018000008000008002010003F27
:104B8000F8007FF00000100000000000000020008E
:104B9000003000003C00003F800023F0000078005F
:104BA0000070002380003C00003000002000002046
:104BB00000003C00003FE00023F80000E000270078
:104BC000003E00003FE00021F80001E0003E000050
:104BD0002000000000002008002008003838003EB7
:104BE000680027800003C8002CF80038380020181F
:104BF000002008000000000000002000003003003A
:104C00003C01003F830023EC000070002380003C47
:104C10000000200000200000000000000000000054
:104C20000038080020380020F80023E8002F880012
:104C30003E08003808002018000070000000000046
:104C4000000000000000000000000000000008005C
:104C50000014001FF7FC30000620000200000000D6
:104C60000000000000000000000000000000000044
:104C700000000000FFFFFF00000000000000000037
:104C800000000000000000000000000020000230D2
:104C900000061FF7FC0014000008000000000000E0
:104CA00000000000000000000000000000180000EC
:104CB00060000040000040000020000010000008DC
:104CC00000000400000400000C0000100000E000E0
:104CD000C00000007B226D6574686F64223A227404
:104CE00068696E672E736572766963652E70726F80
:104CF00070657274792E736574222C226964223A6D
:104D000022363330323632333036222C2270617202
:104D1000616D73223A7B0909090922437572726534
:104D20006E7454656D7065726174757265223A2592
:104D30002E31662C0909090922687565223A256415
:104D40002C09090909226D6C7578223A2564090934
:104D5000097D2C2276657273696F6E223A22312E9C
:104D6000302E30227D000000884D00080000002019
:104D70009C000000F8210008244E00089C00002040
:104D8000FC260000082200080000000000000000CF
:104D90000000000000000000000000000000000013
:104DA00000000000020406080000000001020304E5
:104DB00001020304060708090000000000000000CB
:104DC0000000000000000000350B0008DD110008A5
:104DD000391B0008850D0008350E00087510000805
:104DE00005190008750B00088D1B00086D1B0008D5
:104DF00000000000000000000000000000000000B3
:104E000000000000551200089D0B00085D1C000802
:104E100051190008A91B00086910000800000000D3
:044E2000000000008E
:04000005080000ED02
:00000001FF
