:020000040800F2
:10000000C80800203D020008B14F0008710D00082B
:10001000AD4F000819080008BB5800080000000098
:100020000000000000000000000000006D52000809
:10003000450A00080000000091500008C153000864
:10004000570200085702000857020008570200082C
:10005000570200085702000857020008570200081C
:10006000570200085702000857020008570200080C
:1000700057020008570200085702000857020008FC
:1000800057020008570200085702000857020008EC
:1000900057020008570200085702000857020008DC
:1000A00057020008570200085702000857020008CC
:1000B00057020008570200085702000857020008BC
:1000C00057020008570200085702000857020008AC
:1000D0005702000857020008570200087D55000823
:1000E000570200085702000857020008570200088C
:1000F000570200085702000857020008570200087C
:10010000570200085702000857020008570200086B
:100110005702000857020008570200082D54000833
:10012000570200085702000857020008570200084B
:10013000570200085702000857020008570200083B
:10014000570200085702000857020008570200082B
:10015000570200085702000857020008570200081B
:10016000570200085702000857020008570200080B
:1001700057020008570200085702000857020008FB
:10018000570200085702000800F002F800F047F894
:100190000AA090E8000C82448344AAF10107DA45E2
:1001A00001D100F03CF8AFF2090EBAE80F0013F0ED
:1001B000010F18BFFB1A43F001031847D45D00007C
:1001C000F45D0000103A24BF78C878C1FAD852070D
:1001D00024BF30C830C144BF04680C6070470000C1
:1001E0000023002400250026103A28BF78C1FBD840
:1001F000520728BF30C148BF0B607047642900F028
:100200008B80782900F0EF80732900F09082002025
:1002100070471FB505F09AFE1FBD10B510BD00F068
:10022000CDFA1146FFF7F5FF05F010FC00F0EBFAF0
:1002300003B4FFF7F2FF03BC05F072FB09488047E7
:1002400009480047FEE7FEE7FEE7FEE7FEE7FEE7B8
:10025000FEE7FEE7FEE7FEE704480549054A064BD0
:1002600070470000C553000889010008C80200203B
:10027000C8080020C8040020C804002070470000FF
:100280000FB4044910B503AA029800F055FA10BC47
:100290005DF814FB080000200FB41CB5084B06AA3B
:1002A0007B4469460090059800F017FA0446002048
:1002B000694600F025FA20461CBC5DF814FB0000DE
:1002C0005D04000070B50C460546012A05D028786B
:1002D000800600D5EA69002302E0012305E05B1CEB
:1002E000934202D2E05C0028F9D1A869E618C01A4E
:1002F000A861286A184428622846AFF3008004E009
:10030000D5E9012114F8010B9047B442F8D32846EF
:10031000AFF3008070BD00002DE9F04106460024D7
:1003200010687529314616A510D0AFF3008000285B
:1003300002DA404213A507E031688A0701D512A509
:1003400002E0490704D511A5012401E0AFF30080C4
:1003500000210A2206F1240709E0B0FBF2FCB0FB01
:10036000F2F302FB1C00303078541846491C002878
:10037000F3D123462A463046BDE8F04100F04EB99D
:10038000000000002D0000002B00000020000000F5
:10039000F0B40D460188090502D5214C7C4402E0E9
:1003A0001F4C7C440E34002100F1240608E002F0CA
:1003B0000F071209E75D42EA03721B097754491CD3
:1003C00052EA0307F3D102780023120704D5702DF7
:1003D00006D009B1022311342246F0BC00F01EB948
:1003E00001231034F8E770B504460D462146106825
:1003F000AFF30080024629462046BDE87040002346
:10040000C6E7D21D22F00703D3E90023C0E7036843
:10041000126843F0200303600823C3610023B7E799
:10042000B65B00002DE9F05F894604464FF0000AF4
:10043000DFF874B1FB44C0F820A02046E16888478B
:10044000002874D0252806D0D4E901219047206ADD
:10045000401C2062F1E700265F462046E16888479D
:100460002028054607DB312D05D2781910F8200C1D
:1004700008B10643F1E7B00701D526F00406C4F839
:100480001CA00027C4F818A02A2D09D0284605F082
:1004900040FA38B304EB8708303DC8F8185019E02B
:1004A00059F8041B204604EB87029161E1688847F4
:1004B000012F054618D1E069002820DA26F0200631
:1004C0001DE0D8F8180000EB800005EB4000303844
:1004D000C8F818002046E1688847054605F019FA73
:1004E0000028EED1012F0AD02E2D08D12046E16838
:1004F00088477F1C0546022F46F02006C4DBA06912
:10050000002803DA404246F00106A061F00701D05E
:1005100026F010066C2D0BD0682D09D04C2D39D04B
:100520006A2D35D0742D35D07A2D33D016E038E0D1
:10053000E1682F4620468847B842054609D16C2F0E
:1005400026D04FF48060E168064320468847054680
:1005500004E06C2F1AD04FF4807006430DB3A5F160
:100560004100192802D8203546F400664A4629463B
:10057000204626604E46FFF741FE80B101280BD091
:10058000F61D26F0070000F1080956E74020E4E7D1
:100590008020D8E70020D6E706F104094DE7284679
:1005A00052E7206ABDE8F09F465B000030B5054683
:1005B0000B462A4613F8014B12F8010B08B1A04272
:1005C000F8D01CB1002802D06D1CF1E7284630BDE0
:1005D0004FF000020429C0F0128010F0030C00F06C
:1005E000BF80CCF1040CBCF1020F18BF00F8012B46
:1005F000A8BF20F8022BA1EB0C0100F0B1B85FEA14
:10060000C17C24BF00F8012B00F8012B48BF00F883
:10061000012B704770477047704770472DE9F047CE
:100620000D4699469246044600F124080168880662
:1006300004D5E06921F01001216000E00120A8420A
:1006400001DD471B00E00027A1697A1902EB0900D0
:10065000081AA0612078C00602D42046AFF30080BB
:10066000002608E0D4E901211AF806009047206A24
:10067000401C761C20624E45F4DB2078C0060AD56B
:100680002046AFF3008006E0D4E9012130209047F6
:10069000206A401C2062381EA7F10107F4DC07E045
:1006A000D4E9012118F805009047206A401C206217
:1006B000281EA5F10105F3DC2046AFF30080207869
:1006C000000602D50220BDE8F0870120FBE700000C
:1006D00001694A1C02610878704700B58FB0CDE906
:1006E00001310021059105497944CDE903101146F6
:1006F0006846FFF797FE0FB000BD0000E5FFFFFF63
:100700000A6802F8010B0A60704710B5436913B11B
:10071000AFF3008001E0FFF7D5FD012010BD127896
:1007200000F124010A7000224A700122EDE71168ED
:100730004FF0FF32E9E70000074B70B50D467B44F0
:10074000FFF7CBFF0446284600F02FF810B14FF01A
:10075000FF3070BD204670BDEF5200004FF0000228
:1007600000B5134694469646203922BFA0E80C50A7
:10077000A0E80C50B1F12001BFF4F7AF090728BF82
:10078000A0E80C5048BF0CC05DF804EB890028BFFE
:1007900040F8042B08BF704748BF20F8022B11F027
:1007A000804F18BF00F8012B7047007B00F08000DD
:1007B0007047000000487047640200207546FFF74C
:1007C000F9FFAE4605006946534620F0070085460E
:1007D00018B020B5FFF740FDBDE820404FF00006FF
:1007E0004FF000074FF000084FF0000B21F0070119
:1007F000AC46ACE8C009ACE8C009ACE8C009ACE85C
:10080000C0098D46704710B50446AFF300802046FE
:10081000BDE81040FFF70CBD00BFFEE710B5052492
:1008200011E00C4A91881068FFF7D2FE0948016B6D
:1008300009A088470749C822086809A100F0C5F93E
:1008400008B1012010BD201EA4F10101CCB2E8D1F5
:1008500000BFF7E71000002041540D0A000000001F
:100860004F4B000010B50848016B08A088470648A8
:10087000816B322088470448016B04A088470248F6
:10088000816B3220884710BD100000202B2B2B00DD
:1008900070B505460E46052410E0214A918810687F
:1008A000FFF796FE1E48016B1EA088471C49C82210
:1008B000086821A100F089F900B104E0201EA4F12C
:1008C0000101CCB2E9D100BF0CB9002070BD0224F7
:1008D0001EE0134A91899068FFF77AFE104A9188CA
:1008E0001068FFF775FE0E4933462A46886813A143
:1008F000FFF7D2FC0A4A9068116B884708494FF409
:10090000FA5208680CA100F060F908B10120DDE797
:10091000201EA4F10101CCB2DBD100BFD6E700005C
:100920001000002041542B43574D4F44455F435521
:10093000523D310D0A0000004F4B000041542B4343
:10094000574A41505F4355523D222573222C2225A0
:1009500073220D0A00000000F8B505460E46174642
:100960002949C86A80472848816B4FF4FA70884744
:1009700002241EE0244A91881068FFF729FE224ACB
:1009800091899068FFF724FE1F49009733462A4655
:1009900088681EA1FFF780FC1B4A9068116B88478E
:1009A00019494FF4FA5208681FA100F00EF900B17E
:1009B00004E0201EA4F10101CCB2DBD100BF0CB9D0
:1009C0000020F8BD1049886A804708B90020F8E780
:1009D000022411E00C4A91881068FFF7F9FD0A48DB
:1009E000016B13A088470849C822086814A100F0C9
:1009F000ECF808B10120E4E7201EA4F10101CCB21B
:100A0000E8D100BFDDE700001000002041542B4377
:100A1000495053544152543D222573222C222573B0
:100A2000222C25640D0A0000434F4E4E45435400CE
:100A300041542B43495053454E440D0A00000000D9
:100A40003E0000007047000010B51249C86A804798
:100A50001048816B4FF4FA70884710E00D4A918876
:100A60001068FFF7B5FD0B48016B0BA088470949DB
:100A7000C82208680CA100F0A8F800B104E0201E0C
:100A8000A4F10101CCB2E9D100BF0CB1012010BD2D
:100A90000020FCE71000002041542B434950434CF8
:100AA0004F53450D0A000000434C4F53454400008E
:100AB00051B18200A2F1C042126842F001038200EB
:100AC000A2F1C042136009E08200A2F1C0421268A4
:100AD000034B1A408300A3F1C0431A607047000023
:100AE000FEFF0F00D0E901121143C26811430269F1
:100AF00011434269114382691143C2691143026A79
:100B00001143426A1143826A1143C26A1143026B64
:100B1000114302689200A2F1C04211608168082965
:100B20000BD101688900A1F1C041096841F0400280
:100B300001688900A1F1C0410A60416B0968426BFC
:100B4000526841EA0211426B926841EA0221426B0B
:100B5000928941EA0241426B128A41EA0251426B98
:100B6000127D41EA0261426B926911430268521C94
:100B70009200A2F1C0421160C16AB1F5804F1BD151
:100B8000816B0968826B526841EA0211826B92683C
:100B900041EA0221826B128A41EA0251826B127D84
:100BA00041EA0261826B9269114302689200A2F1EC
:100BB000C042C2F8041107E06FF07042016889007A
:100BC000A1F1C041C1F80421704770B505460E4639
:100BD00014460A2094FBF0F084B202E00A2004F0EC
:100BE000BFFE31462846FFF7E1FC20B9201EA4F1E4
:100BF00001018CB2F2D10CB1012070BD0020FCE7E4
:100C0000F0B50A4600210023002400BF3DE0012585
:100C100005FA01F3156805EA03049C4234D105681E
:100C20004F000326BE40B543056015794E00B54020
:100C30000668354305601579012D02D01579022D1E
:100C400016D185684F000326BE40B54385605579AF
:100C50004E00B540866835438560456801268E4064
:100C6000B5434560456896798E40B6B235434560D8
:100C7000C5684F000326BE40B543C560D5794E0018
:100C8000B540C6683543C560491C1029BFD3F0BDC7
:100C9000F0B5002300244D07ED0E02FA05F3CE1047
:100CA00000F1200555F826504E07F70E0F26BE40DE
:100CB000B543CF1000F1200646F82750CE1000F1C2
:100CC000200555F8265045EA0304CE1000F1200512
:100CD00045F82640F0BD0183704700002DE9F04142
:100CE00010E0174A91881068FFF772FC1448016BF6
:100CF00014A088471249C822086815A1FFF765FFAC
:100D000000B104E0301EA6F10101CEB2E9D100BF6E
:100D10000B4908680EA1FFF749FC04460DA1A01C71
:100D2000FFF744FC8046A51C2A460BA13846FFF776
:100D3000B3FA39460BA0FFF7A3FABDE8F081000033
:100D40001000002041542B43494653520D0A000025
:100D500049502C002C00000041502049503A257386
:100D60002000000049502069732025730D0A0000FF
:100D700000BFFEE72DE9F04104460D4616461F462A
:100D80001D480460858086608781024691881068CE
:100D9000FFF71EFC184A91899068FFF719FC164965
:100DA000C86A80471448816B4FF4FA70884712482C
:100DB000016B12A088471048816B4FF4FA70884786
:100DC0000D490869804710B90020BDE8F0810A4A42
:100DD00091881068FFF7FCFB0748016B0AA0884761
:100DE00005494FF4FA72086809A1FFF7EEFE08B949
:100DF0000020EAE70120E8E71000002041542B52D0
:100E000053540D0A00000000415445300D0A000003
:100E10004F4B00001CB50121112004F03BF91C20B0
:100E2000009000208DF8040003208DF805000120BB
:100E30008DF8070069460648FFF7E2FE01200090A2
:100E400002208DF8070069460248FFF7D9FE1CBD55
:100E5000001002400000024070B50446002617480A
:100E60000588408845431548808846F60401884235
:100E700016D112488079012812D100200F498871BB
:100E80002A2048812B2088810021084603F06EFF2C
:100E900001200A4988712B2048812A20888103E09B
:100EA0000021084603F062FF04F04CF8002602E03F
:100EB00003480480761CAE42FAD370BD5402002071
:100EC0008000006C10B50446002C66D16C49887116
:100ED000F02008804FF4A07048800846808849F2CE
:100EE000413188420BD06648808846F6040188422A
:100EF00005D06348808845F2103188421AD12C20F1
:100F00005F4908812A2048812B20888108468088F3
:100F100046F60401884205D05948808845F21031D0
:100F2000884206D14FF4A070554908804FF4F07004
:100F30004880A1E05248808845F21051884210D183
:100F40004FF430504E4908814FF4285048814FF4F7
:100F50002C5088814FF4F07008804FF4487048801E
:100F60008AE04748808841F6631188420DD12C20E1
:100F7000434908812B2048812A2088814FF4F07052
:100F800008804FF44870488076E022203C49088170
:100F900020204881212088816EE001203849887115
:100FA0004FF4A0700880F02048800846808849F2FD
:100FB0004131884205D03248808845F2103188425C
:100FC00007D12C202E4908812A2048812B20888196
:100FD0003FE02B48808846F60401884207D12C2048
:100FE000274908812B2048812A20888131E0244824
:100FF000808845F21051884210D14FF4305020497A
:1010000008814FF4285048814FF42C5088814FF4C8
:10101000487008804FF4F07048801AE018488088C3
:1010200041F6631188420DD12C20154908812A20F0
:1010300048812B2088814FF4487008804FF4F0706D
:10104000488006E022200E49088121204881202086
:1010500088810B48808846F60401884205D00848FC
:10106000808845F21031884206D14FF4F07004496F
:1010700008804FF4A0704880002003F001FD10BDEF
:101080005402002000B5A1B00020209001217A2058
:1010900004F000F80121084604F00CF84FF4004079
:1010A0001E9001208DF87C0000208DF87E0002202B
:1010B0008DF87D0001208DF87F001EA9FE48FFF706
:1010C0009FFD4CF233701E9002208DF87C000020B2
:1010D0008DF87E0003208DF87D0001208DF87F00C3
:1010E0001EA9F648FFF78CFD4FF680701E90022077
:1010F0008DF87C0000208DF87E0003208DF87D00A7
:1011000001208DF87F001EA9ED48FFF779FD4FF40F
:1011100080501E9002208DF87C0000208DF87E000B
:1011200003208DF87D0001208DF87F001EA9E54881
:10113000FFF766FD4FF480501E9002208DF87C0072
:1011400000208DF87E0003208DF87D0001208DF8B1
:101150007F001EA9DC48FFF753FD0C220021D74871
:10116000FFF796FD0C220121D448FFF791FD0C22D8
:101170000421D248FFF78CFD0C220521CF48FFF750
:1011800087FD0C220821CD48FFF782FD0C220921A2
:10119000CA48FFF77DFD0C220A21C848FFF778FDF9
:1011A0000C220E21C548FFF773FD0C220F21C34806
:1011B000FFF76EFD0C220721C148FFF769FD0C22E5
:1011C0000821BF48FFF764FD0C220921BC48FFF746
:1011D0005FFD0C220A21BA48FFF75AFD0C220B21B1
:1011E000B748FFF755FD0C221146B548FFF750FDF3
:1011F0000C220D21B248FFF74BFD0C220E21B04806
:10120000FFF746FD0C220F21AD48FFF741FD0C22F0
:101210001146AC48FFF73CFD0C221146AA48FFF7E7
:1012200037FD0F200890002009903C200A900020F4
:101230000B900C900D900E900920019000200290D0
:101240000820039000200490059006900790062047
:101250000F900020109011901020129000201390F9
:1012600015901490169017904FF48050189000200D
:1012700019904FF480401A9000201B9008A81C90F1
:1012800001A81D900FA8FFF72DFC01210620FFF7F4
:101290000FFC322004F064FB0121002003F05CFE0F
:1012A000322004F05DFB002003F0AEFB874988800C
:1012B00008468088FF280ADB084680884FF6FF71C1
:1012C000884204D081488088B0F5134F7ED1D32066
:1012D00003F02CFE03F08EFB7C49888003F08AFB30
:1012E0007A49888003F086FB7849888008468088A0
:1012F0004FF6FF7101EA00207449888003F07AFB01
:10130000724989880843714988800846808849F273
:10131000413188425AD0BF2003F008FE03F06AFB37
:101320006A49888003F066FB6849888003F062FBA5
:101330006649888003F05EFB64498880084680889F
:101340004FF6FF7101EA00206049888003F052FBEC
:101350005E49898808435D4988800846808846F64A
:10136000040188427AD0D42003F0E0FD03F042FB70
:101370005649888003F03EFB5449888003F03AFBCD
:1013800052498880084680884FF6FF7101EA0020A4
:101390004E49888003F02EFB4C49898808434B490D
:1013A00088800846808845F21031884256D04FF434
:1013B0005A4003F0BBFD03F01DFB444988804FF405
:1013C0005B4003F0B3FD03F015FB00E046E03F494E
:1013D0008880084680884FF6FF7101EA00203B496B
:1013E00088804FF45C4003F0A1FD03F003FB374914
:1013F000898808433549888008468088B0F5004FC1
:1014000002D145F2105088803048808845F2105152
:10141000884223D0A12003F089FD03F0EBFA2B4989
:10142000888003F0E7FA29498880084680884FF6CB
:10143000FF7101EA00202549888003F0DBFA234987
:1014400089880843214988800846808845F261716F
:10145000884203D141F663101C4988801B4880886C
:1014600049F24131884211D01848808845F2103144
:1014700088420BD01548808845F21051884205D02B
:101480001248808841F6631188422DD110480068C7
:1014900020F00F004FF02041C1F81C010846D0F8A1
:1014A0001C0120F47060C1F81C010846D0F81C0132
:1014B00040F003000EE0000000040240000C024077
:1014C00000100240001402400018024054020020A4
:1014D0001C0100A0C1F81C010846D0F81C0140F412
:1014E0000070C1F81C0128E0FE48808846F604011F
:1014F000884205D0FB4880884CF2055188421CD1B7
:10150000F948006820F00F004FF02041C1F81C019D
:101510000846D0F81C0120F47060C1F81C01084690
:10152000D0F81C0140F00A00C1F81C010846D0F8B0
:101530001C0140F44060C1F81C01EA488188EBA01E
:10154000FEF79EFEE748808849F2413188427CD10F
:10155000CF2003F0EBFC002003F0DCFCC12003F003
:10156000D9FC302003F0D6FCED2003F0DFFC642032
:1015700003F0D0FC032003F0CDFC122003F0CAFCE2
:10158000812003F0C7FCE82003F0D0FC852003F0A5
:10159000C1FC102003F0BEFC7A2003F0BBFCCB2082
:1015A00003F0C4FC392003F0B5FC2C2003F0B2FC9E
:1015B000002003F0AFFC342003F0ACFC022003F069
:1015C000A9FCF72003F0B2FC202003F0A3FCEA20E2
:1015D00003F0ACFC002003F09DFC002003F09AFC1B
:1015E000C02003F0A3FC1B2003F094FCC12003F0F7
:1015F0009DFC012003F08EFCC52003F097FC3020F9
:1016000003F088FC302003F085FCC72003F08EFC3B
:10161000B72003F07FFC362003F088FC482003F05D
:1016200079FC3A2003F082FC552003F073FCB120D2
:1016300003F07CFC002003F06DFC1A2003F06AFC30
:10164000B62003F073FC0A2000E099E003F062FC8E
:10165000A22003F05FFCF22003F068FC002003F0FE
:1016600059FC262003F062FC012003F053FCE0202B
:1016700003F05CFC0F2003F04DFC2A2003F04AFC31
:10168000282003F047FC082003F044FC0E2003F060
:1016900041FC082003F03EFC542003F03BFCA92051
:1016A00003F038FC432003F035FC0A2003F032FC41
:1016B0000F2003F02FFC002003F02CFC002003F08F
:1016C00029FC002003F026FC002003F023FCE1208D
:1016D00003F02CFC002003F01DFC152003F01AFC85
:1016E000172003F017FC072003F014FC112003F06F
:1016F00011FC062003F00EFC2B2003F00BFC5620FF
:1017000003F008FC3C2003F005FC052003F002FC7C
:10171000102003F0FFFB0F2003F0FCFB3F2003F041
:10172000F9FB3F2003F0F6FB0F2003F0F3FB2B2027
:1017300003F0FCFB002003F0EDFB002003F0EAFBCC
:10174000012003F0E7FB3F2003F0E4FB2A2003F035
:10175000EDFB002003F0DEFB002003F0DBFB0020AC
:1017600003F0D8FBEF2003F0D5FB112003F0DEFBE4
:10177000782004F0F5F8292003F0D8FB03F02AB90B
:101780005848808846F6040188427CD1112003F035
:10179000CDFB142004F0E4F8D02003F0C7FB0720B1
:1017A00003F0B8FB422003F0B5FB1D2003F0B2FBB1
:1017B000D12003F0BBFB002003F0ACFB1A2003F0A8
:1017C000A9FB092003F0A6FBD22003F0AFFB012008
:1017D00003F0A0FB222003F09DFBC02003F0A6FB3A
:1017E000102003F097FB3B2003F094FB002003F054
:1017F00091FB022003F08EFB112003F08BFBC52030
:1018000003F094FB032003F085FBC82003F08EFB5C
:10181000002003F07FFB252003F07CFB212003F058
:1018200079FB052003F076FB002003F073FB0A2010
:1018300003F070FB652003F06DFB252003F06AFBCD
:10184000772003F067FB502003F064FB0F2003F0C8
:1018500061FB002003F05EFBF82003F067FB012032
:1018600003F058FBFE2003F061FB002003F052FB65
:10187000022003F04FFB202003F058FB362003F03A
:1018800055FB082000E039E003F044FB3A2003F068
:101890004DFB552003F03EFB2B2003F047FB0020BF
:1018A00003F038FB002003F035FB012003F032FB8E
:1018B0003F2003F02FFB2A2003F038FB002003F029
:1018C00029FB002003F026FB012003F023FBDF208F
:1018D00003F020FB782004F043F8292003F026FBD6
:1018E0004CE70000540200201C0100A0204C43449F
:1018F0002049443A25780D0A00000000FE488088FF
:1019000045F21031884240F07C87ED2003F00EFB59
:10191000012003F0FFFAFE2003F0FCFAEE2003F0B2
:1019200005FBDE2003F0F6FA212003F0F3FAF120A4
:1019300003F0FCFA012003F0EDFADF2003F0F6FAE1
:10194000102003F0E7FAC42003F0F0FA8F2003F030
:10195000E1FAC62003F0EAFA002003F0DBFAE22005
:1019600003F0D8FAE22003F0D5FAE22003F0D2FA2D
:10197000BF2003F0DBFAAA2003F0CCFAB02003F07A
:10198000D5FA0D2003F0C6FA002003F0C3FA0D20AB
:1019900003F0C0FA002003F0BDFA112003F0BAFAF8
:1019A000002003F0B7FA192003F0B4FA002003F086
:1019B000B1FA212003F0AEFA002003F0ABFA2D209B
:1019C00003F0A8FA002003F0A5FA3D2003F0A2FAE4
:1019D000002003F09FFA5D2003F09CFA002003F042
:1019E00099FA5D2003F096FA002003F093FAB120F3
:1019F00003F09CFA802003F08DFA002003F08AFAAD
:101A00008B2003F087FA002003F084FA962003F07D
:101A100081FA002003F07EFAB22003F087FA00205A
:101A200003F078FA002003F075FA022003F072FA4E
:101A3000002003F06FFA032003F06CFA002003F09B
:101A400069FAB32003F072FA002003F063FA002071
:101A500003F060FA002003F05DFA002003F05AFA68
:101A6000002003F057FA002003F054FA002003F09E
:101A700051FA002003F04EFA002003F04BFA002048
:101A800003F048FA002003F045FA002003F042FA80
:101A9000002003F03FFA002003F03CFA002003F09E
:101AA00039FA002003F036FA002003F033FA002060
:101AB00003F030FA002003F02DFA002003F02AFA98
:101AC000002003F027FA002003F024FA002003F09E
:101AD00021FA002003F01EFAB42003F027FA8B202D
:101AE00003F018FA002003F015FA962003F012FA1A
:101AF000002003F00FFAA12003F00CFA002003F0FD
:101B000009FAB52003F012FA022003F003FA0020CC
:101B100003F000FA032003F0FDF9002003F0FAF9C6
:101B2000042003F0F7F9002003F0F4F9B62003F0E5
:101B3000FDF9002003F0EEF9002003F0EBF9B720E7
:101B400003F0F4F9002003F0E5F9002003F0E2F9D6
:101B50003F2003F0DFF9002003F0DCF95E2003F002
:101B6000D9F9002003F0D6F9642003F0D3F900205E
:101B700003F0D0F98C2003F0CDF9002003F0CAF96E
:101B8000AC2003F0C7F9002003F0C4F9DC2003F017
:101B9000C1F9002003F0BEF9702003F0BBF900206A
:101BA00003F0B8F9902003F0B5F9002003F0B2F982
:101BB000EB2003F0AFF9002003F0ACF9DC2003F0D8
:101BC000A9F9002003F0A6F9B82003F0AFF900202E
:101BD00003F0A0F9002003F09DF9002003F09AF92A
:101BE000002003F097F9002003F094F9002003F09F
:101BF00091F9002003F08EF9002003F08BF9BA2050
:101C000003F094F9242003F085F9002003F082F911
:101C1000002003F07FF9002003F07CF9C12003F0DD
:101C200085F9202003F076F9002003F073F95420A1
:101C300003F070F9002003F06DF9FF2003F06AF95A
:101C4000002003F067F9C22003F070F90A2003F0C6
:101C500061F9002003F05EF9042003F05BF9002035
:101C600003F058F9C32003F061F93C2003F052F966
:101C7000002003F04FF93A2003F04CF9002003F064
:101C800049F9392003F046F9002003F043F93720E1
:101C900003F040F9002003F03DF93C2003F03AF94D
:101CA000002003F037F9362003F034F9002003F068
:101CB00031F9322003F02EF9002003F02BF92F2008
:101CC00003F028F9002003F025F92C2003F022F975
:101CD000002003F01FF9292003F01CF9002003F075
:101CE00019F9262003F016F9002003F013F9242037
:101CF00003F010F9002001E05402002003F00AF97B
:101D0000242003F007F9002003F004F9232003F056
:101D100001F9002003F0FEF83C2003F0FBF800205E
:101D200003F0F8F8362003F0F5F8002003F0F2F89D
:101D3000322003F0EFF8002003F0ECF82F2003F03E
:101D4000E9F8002003F0E6F82C2003F0E3F8002087
:101D500003F0E0F8292003F0DDF8002003F0DAF8C2
:101D6000262003F0D7F8002003F0D4F8242003F055
:101D7000D1F8002003F0CEF8242003F0CBF80020A7
:101D800003F0C8F8232003F0C5F8002003F0C2F8E0
:101D9000C42003F0CBF8622003F0BCF8002003F06D
:101DA000B9F8052003F0B6F8002003F0B3F884205A
:101DB00003F0B0F8002003F0ADF8F02003F0AAF82B
:101DC000002003F0A7F8182003F0A4F8002003F087
:101DD000A1F8A42003F09EF8002003F09BF818203F
:101DE00003F098F8002003F095F8502003F092F8E3
:101DF000002003F08FF80C2003F08CF8002003F093
:101E000089F8172003F086F8002003F083F8952066
:101E100003F080F8002003F07DF8F32003F07AF857
:101E2000002003F077F8E62003F074F8002003F0B8
:101E300071F8C52003F07AF8322003F06BF8002027
:101E400003F068F8442003F065F8002003F062F81E
:101E5000652003F05FF8002003F05CF8762003F0C3
:101E600059F8002003F056F8882003F053F80020BA
:101E700003F050F8C62003F059F8202003F04AF888
:101E8000002003F047F8172003F044F8002003F087
:101E900041F8012003F03EF8002003F03BF8C72092
:101EA00003F044F8002003F035F8002003F032F886
:101EB000002003F02FF8002003F02CF8C82003F0D6
:101EC00035F8002003F026F8002003F023F8002066
:101ED00003F020F8002003F01DF8C92003F026F8D5
:101EE000002003F017F8002003F014F8002003F09E
:101EF00011F8002003F00EF8002003F00BF800208A
:101F000003F008F8002003F005F8002003F002F8C1
:101F1000002002F0FFFF002002F0FCFF002002F092
:101F2000F9FF002002F0F6FF002002F0F3FF00208E
:101F300002F0F0FF002002F0EDFF002002F0EAFFC7
:101F4000E02002F0F3FF162002F0E4FF002002F090
:101F5000E1FF1C2002F0DEFF002002F0DBFF212069
:101F600002F0D8FF002002F0D5FF362002F0D2FFA9
:101F7000002002F0CFFF462002F0CCFF002002F04C
:101F8000C9FF522002F0C6FF002002F0C3FF642008
:101F900002F0C0FF002002F0BDFF7A2002F0BAFF7D
:101FA000002002F0B7FF8B2002F0B4FF002002F007
:101FB000B1FF992002F0AEFF002002F0ABFFA82095
:101FC00002F0A8FF002002F0A5FFB92002F0A2FF56
:101FD000002002F09FFFC42002F09CFF002002F0CE
:101FE00099FFCA2002F096FF002002F093FFD22052
:101FF00002F090FF002002F08DFFD92002F08AFF4E
:10200000002002F087FFE02002F084FF002002F0B1
:1020100081FFF32002F07EFF002002F07BFFE12031
:1020200002F084FF162002F075FF002002F072FF1C
:102030001C2002F06FFF002002F06CFF222002F053
:1020400069FF002002F066FF362002F063FF0020E7
:1020500002F060FF452002F05DFF002002F05AFF11
:10206000522002F057FF002002F054FF642002F0DB
:1020700051FF002002F04EFF7A2002F04BFF0020BB
:1020800002F048FF8B2002F045FF002002F042FFE3
:10209000992002F03FFF002002F03CFFA82002F050
:1020A00039FF002002F036FFB92002F033FF002094
:1020B00002F030FFC42002F02DFF002002F02AFFC2
:1020C000CA2002F027FF002002F024FFD22002F0F5
:1020D00021FF002002F01EFFD82002F01BFF00208D
:1020E00002F018FFE02002F015FF002002F012FFBE
:1020F000F32002F00FFF002002F00CFFE22002F0BC
:1021000015FF052002F006FF002002F003FF0B2060
:1021100002F000FF002002F0FDFE1B2002F0FAFE9C
:10212000002002F0F7FE342002F0F4FE002002F05E
:10213000F1FE442002F0EEFE002002F0EBFE4F2004
:1021400002F0E8FE002002F0E5FE612002F0E2FE6F
:10215000002002F0DFFE792002F0DCFE002002F019
:10216000D9FE882002F0D6FE002002F0D3FE972090
:1021700002F0D0FE002002F0CDFEA62002F0CAFE42
:10218000002002F0C7FEB72002F0C4FE002002F0DB
:10219000C1FEC22002F0BEFE002002F0BBFEC7203E
:1021A00002F0B8FE002002F0B5FED12002F0B2FE2F
:1021B000002002F0AFFED62002F0ACFE002002F0BC
:1021C000A9FEDD2002F0A6FE002002F0A3FEF3200F
:1021D00002F0A0FE002002F09DFEE32002F0A6FE29
:1021E000052002F097FE002002F094FE0A2002F083
:1021F00091FE002002F08EFE1C2002F08BFE0020DB
:1022000002F088FE332002F085FE002002F082FEFC
:10221000442002F07FFE002002F07CFE502002F0FD
:1022200079FE002002F076FE622002F073FE0020AC
:1022300002F070FE782002F06DFE002002F06AFECF
:10224000882002F067FE002002F064FE972002F072
:1022500061FE002002F05EFEA62002F05BFE002080
:1022600002F058FEB72002F055FE002002F052FEA8
:10227000C22002F04FFE002002F04CFEC72002F008
:1022800049FE002002F046FED12002F043FE00206D
:1022900002F040FED52002F03DFE002002F03AFEA2
:1022A000DD2002F037FE002002F034FEF32002F0C1
:1022B00031FE002002F02EFEE42002F037FE012065
:1022C00002F028FE002002F025FE012002F022FE8E
:1022D000002002F01FFE022002F01CFE002002F08F
:1022E00019FE2A2002F016FE002002F013FE3C2008
:1022F00002F010FE002002F00DFE4B2002F00AFE5C
:10230000002002F007FE5D2002F004FE002002F033
:1023100001FE742002F0FEFD002002F0FBFD84208F
:1023200002F0F8FD002002F0F5FD932002F0F2FD2E
:10233000002002F0EFFDA22002F0ECFD002002F0F0
:10234000E9FDB32002F0E6FD002002F0E3FDBE202F
:1023500002F0E0FD002002F0DDFDC42002F0DAFD15
:10236000002002F0D7FDCD2002F0D4FD002002F0C5
:10237000D1FDD32002F0CEFD002002F0CBFDDD2008
:1023800002F0C8FD002002F0C5FDF32002F0C2FDFE
:10239000002002F0BFFDE52002F0C8FD002002F0A1
:1023A000B9FD002002F0B6FD002002F0B3FD0020D0
:1023B00002F0B0FD022002F0ADFD002002F0AAFD07
:1023C000292002F0A7FD002002F0A4FD3C2002F02D
:1023D000A1FD002002F09EFD4B2002F09BFD00209D
:1023E00002F098FD5D2002F095FD002002F092FDC4
:1023F000742002F08FFD002002F08CFD842002F09A
:1024000089FD002002F086FD932002F083FD00206C
:1024100002F080FDA22002F07DFD002002F07AFD96
:10242000B32002F077FD002002F074FDBE2002F020
:1024300071FD002002F06EFDC42002F06BFD002053
:1024400002F068FDCD2002F065FD002002F062FD83
:10245000D32002F05FFD002002F05CFDDC2002F0E2
:1024600059FD002002F056FDF32002F053FD00203C
:1024700002F050FDE62002F059FD112002F04AFD65
:10248000002002F047FD342002F044FD002002F05D
:1024900041FD562002F03EFD002002F03BFD76207B
:1024A00002F038FD002002F035FD772002F032FD09
:1024B000002002F02FFD662002F02CFD002002F02B
:1024C00029FD882002F026FD002002F023FD99203E
:1024D00002F020FD002002F01DFDBB2002F01AFDDD
:1024E000002002F017FD992002F014FD002002F0F8
:1024F00011FD662002F00EFD002002F00BFD5520BC
:1025000002F008FD002002F005FD552002F002FD5A
:10251000002002F0FFFC452002F0FCFC002002F04D
:10252000F9FC432002F0F6FC002002F0F3FC44200A
:1025300002F0F0FC002002F0EDFCE72002F0F6FCD7
:10254000322002F0E7FC002002F0E4FC552002F00B
:10255000E1FC002002F0DEFC762002F0DBFC002033
:1025600002F0D8FC662002F0D5FC002002F0D2FC7C
:10257000672002F0CFFC002002F0CCFC672002F0C4
:10258000C9FC002002F0C6FC872002F0C3FC00203A
:1025900002F0C0FC992002F0BDFC002002F0BAFC61
:1025A000BB2002F0B7FC002002F0B4FC992002F03E
:1025B000B1FC002002F0AEFC772002F0ABFC002062
:1025C00002F0A8FC442002F0A5FC002002F0A2FCCE
:1025D000562002F09FFC002002F09CFC232002F019
:1025E00099FC002002F096FC332002F093FC0020BE
:1025F00002F090FC452002F08DFC002002F08AFCE5
:10260000E82002F093FC002002F084FC002002F09D
:1026100081FC992002F07EFC002002F07BFC8720E8
:1026200002F078FC002002F075FC882002F072FCB9
:10263000002002F06FFC772002F06CFC002002F01A
:1026400069FC662002F066FC002002F063FC882032
:1026500002F060FC002002F05DFCAA2002F05AFCAF
:10266000002002F057FCBB2002F054FC002002F0D6
:1026700051FC992002F04EFC002002F04BFC662039
:1026800002F048FC002002F045FC552002F042FC1C
:10269000002002F03FFC552002F03CFC002002F03C
:1026A00039FC442002F036FC002002F033FC4420C8
:1026B00002F030FC002002F02DFC552002F02AFC34
:1026C000002002F027FCE92002F030FCAA2002F0F2
:1026D00021FC002002F01EFC002002F01BFC002068
:1026E00002F018FC002002F021FCAA2002F012FCEB
:1026F000CF2002F01BFC002002F00CFC002002F0B6
:1027000009FC002002F006FC002002F003FC00207F
:1027100002F000FC002002F0FDFB002002F0FAFBBA
:10272000002002F0F7FB002002F0F4FB002002F092
:10273000F1FB002002F0EEFB002002F0EBFB00209A
:1027400002F0E8FB002002F0E5FB002002F0E2FBD3
:10275000002002F0DFFB002002F0DCFBF02002F0A2
:10276000E5FB002002F0D6FB502002F0D3FB002056
:1027700002F0D0FB002002F0CDFB002002F0CAFBEB
:10278000F32002F0D3FB002002F0C4FBF92002F09A
:10279000CDFB062002F0BEFB102002F0BBFB29207F
:1027A00002F0B8FB002002F0B5FB3A2002F0BEFBBD
:1027B000552002F0AFFB112002F0B8FB642003F0BB
:1027C000CFF8292002F0B2FB352002F0AFFB002049
:1027D00002F0A0FB512002F0A9FBFF2002F09AFBBF
:1027E000532002F0A3FB2C2002F094FB552002F0B2
:1027F0009DFB822002F08EFB2C2002F097FB02F062
:10280000E9B8FE48808845F2105188427ED15521B2
:102810004FF4704002F0A0FBAA214FF2010002F039
:102820009BFB52214FF2020002F096FB08214FF26F
:10283000030002F091FB01214FF2040002F08CFB37
:102840000D214FF4304002F087FB0D214BF20100C7
:1028500002F082FB0D214BF2020002F07DFB3421DD
:102860004FF4364002F078FB34214BF2016002F065
:1028700073FB34214BF2026002F06EFB0D214FF42A
:10288000314002F069FB0D214BF2011002F064FBB4
:102890000D214BF2021002F05FFB34214FF4374060
:1028A00002F05AFB34214BF2017002F055FB342147
:1028B0004BF2027002F050FB00214FF4324002F064
:1028C0004BFB00214BF2012002F046FB00214BF2B2
:1028D000022002F041FB24214FF4384002F03CFB7F
:1028E00024214BF6010002F037FB24214BF60200B5
:1028F00002F032FB01214FF43F4002F02DFB0F218B
:102900004FF4334002F028FB0F2100E0FEE34BF2CE
:10291000013002F021FB0F214BF2023002F01CFBD0
:1029200034214FF4394002F017FB34214BF60110EB
:1029300002F012FB34214BF6021002F00DFB0821CD
:102940004FF4354002F008FB08214BF2015002F031
:1029500003FB08214BF2025002F0FEFA03214FF470
:10296000424002F0F9FA24214FF43A4002F0F4FA1E
:1029700024214BF6012002F0EFFA24214BF602202D
:1029800002F0EAFA00214FF43C4002F0E5FA782127
:102990004BF6014002F0E0FA00214BF6024002F053
:1029A000DBFA00214FF43D4002F0D6FA78214BF6D5
:1029B000015002F0D1FA00214BF6025002F0CCFA9D
:1029C00000214FF43E4002F0C7FA64214BF601604B
:1029D00002F0C2FA00214FF4514002F0BDFA332157
:1029E0004DF2011002F0B8FA00214DF2021002F08F
:1029F000B3FA34214DF2031002F0AEFA00214DF289
:102A0000041002F0A9FA3A214DF2051002F0A4FADE
:102A100000214DF2061002F09FFA4A214DF20710F4
:102A200002F09AFA00214DF2081002F095FA5C21AA
:102A30004DF2091002F090FA00214DF20A1002F056
:102A40008BFA81214DF20B1002F086FA00214DF233
:102A50000C1002F081FAA6214DF20D1002F07CFA62
:102A600000214DF20E1002F077FAE5214DF20F1021
:102A700002F072FA01214DF2101002F06DFA1321EA
:102A80004DF2111002F068FA01214DF2121002F01D
:102A900063FA54214DF2131002F05EFA01214DF257
:102AA000141002F059FA82214DF2151002F054FA76
:102AB00001214DF2161002F04FFACA214DF2171003
:102AC00002F04AFA02214DF2181002F045FA0021F4
:102AD0004DF2191002F040FA02214DF21A1002F0E4
:102AE0003BFA01214DF21B1002F036FA02214DF2A1
:102AF0001C1002F031FA34214DF21D1002F02CFAB4
:102B000002214DF21E1002F027FA67214DF21F102C
:102B100002F022FA02214DF2201002F01DFA842167
:102B20004DF2211002F018FA02214DF2221002F0AB
:102B300013FAA4214DF2231002F00EFA02214DF2F5
:102B4000241002F009FAB7214DF2251002F004FA20
:102B500002214DF2261002F0FFF9CF214DF227108D
:102B600002F0FAF902214DF2281002F0F5F9DE2107
:102B70004DF2291002F0F0F902214DF22A1002F074
:102B8000EBF9F2214DF22B1002F0E6F902214DF2A1
:102B90002C1002F0E1F9FE214DF22D1002F0DCF9CB
:102BA00003214DF22E1002F0D7F910214DF22F1013
:102BB00002F0D2F903214DF2301002F0CDF93321A9
:102BC0004DF2311002F0C8F903214DF2321002F03B
:102BD000C3F96D214DF2331002F0BEF900214FF41C
:102BE000524002F0B9F933214DF2012002F0B4F95C
:102BF00000214DF2022002F0AFF901E05402002062
:102C000034214DF2032002F0A7F900214DF20420F7
:102C100002F0A2F93A214DF2052002F09DF90021BF
:102C20004DF2062002F098F94A214DF2072002F0F9
:102C300093F900214DF2082002F08EF95C214DF24B
:102C4000092002F089F900214DF20A2002F084F9EE
:102C500081214DF20B2002F07FF900214DF20C2072
:102C600002F07AF9A6214DF20D2002F075F900214B
:102C70004DF20E2002F070F9E5214DF20F2002F026
:102C80006BF901214DF2102002F066F913214DF28B
:102C9000112002F061F901214DF2122002F05CF9DD
:102CA00054214DF2132002F057F901214DF2142066
:102CB00002F052F982214DF2152002F04DF9012166
:102CC0004DF2162002F048F9CA214DF2172002F009
:102CD00043F902214DF2182002F03EF900214DF295
:102CE000192002F039F902214DF21A2002F034F9CC
:102CF00001214DF21B2002F02FF902214DF21C2080
:102D000002F02AF934214DF21D2002F025F90221AA
:102D10004DF21E2002F020F967214DF21F2002F033
:102D20001BF902214DF2202002F016F984214DF208
:102D3000212002F011F902214DF2222002F00CF9BB
:102D4000A4214DF2232002F007F902214DF22420A4
:102D500002F002F9B7214DF2252002F0FDF8022120
:102D60004DF2262002F0F8F8CF214DF2272002F094
:102D7000F3F802214DF2282002F0EEF8DE214DF2A8
:102D8000292002F0E9F802214DF22A2002F0E4F8AD
:102D9000F2214DF22B2002F0DFF802214DF22C201F
:102DA00002F0DAF8FE214DF22D2002F0D5F80321D1
:102DB0004DF22E2002F0D0F810214DF22F2002F01B
:102DC000CBF803214DF2302002F0C6F833214DF24A
:102DD000312002F0C1F803214DF2322002F0BCF89C
:102DE0006D214DF2332002F0B7F800214FF453402B
:102DF00002F0B2F833214DF2013002F0ADF80021BB
:102E00004DF2023002F0A8F834214DF2033002F006
:102E1000A3F800214DF2043002F09EF83A214DF261
:102E2000053002F099F800214DF2063002F094F8D6
:102E30004A214DF2073002F08FF800214DF20830A0
:102E400002F08AF85C214DF2093002F085F8002189
:102E50004DF20A3002F080F881214DF20B3002F081
:102E60007BF800214DF20C3002F076F8A6214DF2ED
:102E70000D3002F071F800214DF20E3002F06CF8C6
:102E8000E5214DF20F3002F067F801214DF21030CC
:102E900002F062F813214DF2113002F05DF80121C9
:102EA0004DF2123002F058F854214DF2133002F076
:102EB00053F801214DF2143002F04EF882214DF208
:102EC000153002F049F801214DF2163002F044F8B5
:102ED000CA214DF2173002F03FF802214DF21830AE
:102EE00002F03AF800214DF2193002F035F80221D3
:102EF0004DF21A3002F030F801214DF21B3002F091
:102F00002BF802214DF21C3002F026F834214DF24C
:102F10001D3002F021F802214DF21E3002F01CF8A3
:102F200067214DF21F3002F017F802214DF22030D8
:102F300002F012F884214DF2213002F00DF8022146
:102F40004DF2223002F008F8A4214DF2233002F0B5
:102F500003F802214DF2243001F0FEFFB7214DF2BB
:102F6000253001F0F9FF02214DF2263001F0F4FF87
:102F7000CF214DF2273001F0EFFF02214DF2283032
:102F800001F0EAFFDE214DF2293001F0E5FF0221D8
:102F90004DF22A3001F0E0FFF2214DF22B3001F02A
:102FA000DBFF02214DF22C3001F0D6FFFE214DF265
:102FB0002D3001F0D1FF03214DF22E3001F0CCFF76
:102FC00010214DF22F3001F0C7FF03214DF23030B8
:102FD00001F0C2FF33214DF2313001F0BDFF03217A
:102FE0004DF2323001F0B8FF6D214DF2333001F077
:102FF000B3FF00214FF4544001F0AEFF33214DF2F6
:10300000014001F0A9FF00214DF2024001F0A4FFB0
:1030100034214DF2034001F09FFF00214DF20440A6
:1030200001F09AFF3A214DF2054001F095FF002191
:103030004DF2064001F090FF4A214DF2074001F0A9
:103040008BFF00214DF2084001F086FF5C214DF21C
:10305000094001F081FF00214DF20A4001F07CFFA0
:1030600081214DF20B4001F077FF00214DF20C4021
:1030700001F072FFA6214DF20D4001F06DFF00211D
:103080004DF20E4001F068FFE5214DF20F4001F0D6
:1030900063FF01214DF2104001F05EFF13214DF25C
:1030A000114001F059FF01214DF2124001F054FF8F
:1030B00054214DF2134001F04FFF01214DF2144015
:1030C00001F04AFF82214DF2154001F045FF012138
:1030D0004DF2164001F040FFCA214DF2174001F0B9
:1030E0003BFF02214DF2184001F036FF00214DF266
:1030F000194001F031FF02214DF21A4001F02CFF7E
:1031000001214DF21B4001F027FF00E004E3022102
:103110004DF21C4001F020FF34214DF21D4001F022
:103120001BFF02214DF21E4001F016FF67214DF2F8
:103130001F4001F011FF02214DF2204001F00CFF71
:1031400084214DF2214001F007FF02214DF222407F
:1031500001F002FFA4214DF2234001F0FDFE022107
:103160004DF2244001F0F8FEB7214DF2254001F068
:10317000F3FE02214DF2264001F0EEFECF214DF28A
:10318000274001F0E9FE02214DF2284001F0E4FE63
:10319000DE214DF2294001F0DFFE02214DF22A40EE
:1031A00001F0DAFEF2214DF22B4001F0D5FE0221B2
:1031B0004DF22C4001F0D0FEFE214DF22D4001F0E9
:1031C000CBFE03214DF22E4001F0C6FE10214DF240
:1031D0002F4001F0C1FE03214DF2304001F0BCFE52
:1031E00033214DF2314001F0B7FE03214DF2324060
:1031F00001F0B2FE6D214DF2334001F0ADFE002131
:103200004FF4554001F0A8FE33214DF2015001F07A
:10321000A3FE00214DF2025001F09EFE34214DF23A
:10322000035001F099FE00214DF2045001F094FE8C
:103230003A214DF2055001F08FFE00214DF206506B
:1032400001F08AFE4A214DF2075001F085FE00216F
:103250004DF2085001F080FE5C214DF2095001F062
:103260007BFE00214DF20A5001F076FE81214DF2E5
:103270000B5001F071FE00214DF20C5001F06CFE7C
:10328000A6214DF20D5001F067FE00214DF20E50C7
:1032900001F062FEE5214DF20F5001F05DFE0121CB
:1032A0004DF2105001F058FE13214DF2115001F073
:1032B00053FE01214DF2125001F04EFE54214DF209
:1032C000135001F049FE01214DF2145001F044FE6B
:1032D00082214DF2155001F03FFE01214DF21650B2
:1032E00001F03AFECA214DF2175001F035FE0221DD
:1032F0004DF2185001F030FE00214DF2195001F04E
:103300002BFE02214DF21A5001F026FE01214DF252
:103310001B5001F021FE02214DF21C5001F01CFE59
:1033200034214DF21D5001F017FE02214DF21E50C6
:1033300001F012FE67214DF21F5001F00DFE022137
:103340004DF2205001F008FE84214DF2215001F091
:1033500003FE02214DF2225001F0FEFDA4214DF2A8
:10336000235001F0F9FD02214DF2245001F0F4FD4B
:10337000B7214DF2255001F0EFFD02214DF226500C
:1033800001F0EAFDCF214DF2275001F0E5FD0221C9
:103390004DF2285001F0E0FDDE214DF2295001F000
:1033A000DBFD02214DF22A5001F0D6FDF2214DF253
:1033B0002B5001F0D1FD02214DF22C5001F0CCFD3B
:1033C000FE214DF22D5001F0C7FD03214DF22E508C
:1033D00001F0C2FD10214DF22F5001F0BDFD03217F
:1033E0004DF2305001F0B8FD33214DF2315001F073
:1033F000B3FD03214DF2325001F0AEFD6D214DF2CF
:10340000335001F0A9FD00214FF4564001F0A4FD16
:1034100033214DF2016001F09FFD00214DF2026069
:1034200001F09AFD34214DF2036001F095FD002179
:103430004DF2046001F090FD3A214DF2056001F07B
:103440008BFD00214DF2066001F086FD4A214DF210
:10345000076001F081FD00214DF2086001F07CFD64
:103460005C214DF2096001F077FD00214DF20A6008
:1034700001F072FD81214DF20B6001F06DFD002124
:103480004DF20C6001F068FDA6214DF20D6001F0D7
:1034900063FD00214DF20E6001F05EFDE5214DF26D
:1034A0000F6001F059FD01214DF2106001F054FD53
:1034B00013214DF2116001F04FFD01214DF2126018
:1034C00001F04AFD54214DF2136001F045FD012148
:1034D0004DF2146001F040FD82214DF2156001F0C3
:1034E0003BFD01214DF2166001F036FDCA214DF27F
:1034F000176001F031FD02214DF2186001F02CFD42
:1035000000214DF2196001F027FD02214DF21A60F1
:1035100001F022FD01214DF21B6001F01DFD022191
:103520004DF21C6001F018FD34214DF21D6001F0D8
:1035300013FD02214DF21E6001F00EFD67214DF2D8
:103540001F6001F009FD02214DF2206001F004FD31
:1035500084214DF2216001F0FFFC02214DF2226036
:1035600001F0FAFCA4214DF2236001F0F5FC0221E8
:103570004DF2246001F0F0FCB7214DF2256001F01E
:10358000EBFC02214DF2266001F0E6FCCF214DF26A
:10359000276001F0E1FC02214DF2286001F0DCFC23
:1035A000DE214DF2296001F0D7FC02214DF22A60A4
:1035B00001F0D2FCF2214DF22B6001F0CDFC022192
:1035C0004DF22C6001F0C8FCFE214DF22D6001F09F
:1035D000C3FC03214DF22E6001F0BEFC10214DF220
:1035E0002F6001F0B9FC03214DF2306001F0B4FC12
:1035F00033214DF2316001F0AFFC03214DF2326016
:1036000001F0AAFC6D214DF2336001F0A5FC5521BB
:103610004FF4704001F0A0FCAA214FF2010001F02C
:103620009BFC52214FF2020001F096FC08214FF260
:10363000030001F091FC00214FF2040001F08CFC2A
:10364000CC214FF4314001F087FC00214BF20110F6
:1036500001F082FC05214FF4364001F07DFC702121
:103660004FF4374001F078FC70214BF2017001F00B
:1036700073FC01214FF4384001F06EFC03214BF63E
:10368000010001F069FC03214BF6020001F064FC2B
:1036900003214BF6030001F05FFC02214FF43C4094
:1036A00001F05AFC00214BF6014001F055FC0021CD
:1036B0004BF6024001F050FCD0214FF4494001F09C
:1036C0004BFC02214CF6011001F046FC50214CF657
:1036D000021001F041FC50214CF6031001F03CFCBB
:1036E00050214CF6041001F037FC00214FF45450E7
:1036F00001F032FC55214FF4685001F02DFC4FF4DD
:10370000885001F013FC782002F046F94FF4245061
:1037100001F00CFC01F05EB9FE48808849F22531C9
:1037200088427DD147F6F001E52001F015FC4FF409
:103730008071012001F010FC4FF4E061022001F0E3
:103740000BFC41F23001032001F006FC00210420B3
:1037500001F002FC40F20221082001F0FDFB0021F3
:10376000092001F0F9FB00210A2001F0F5FB0021FE
:103770000C2001F0F1FB00210D2001F0EDFB0021F8
:103780000F2001F0E9FB0021102001F0E5FB0721EB
:10379000112001F0E1FB0021122001F0DDFB0021EE
:1037A000132001F0D9FB0021072001F0D5FB41F2E5
:1037B0009061102001F0D0FB40F22721112001F090
:1037C000CBFB9D21122001F0C7FB4FF4C851132001
:1037D00001F0C2FB2521292001F0BEFB0D212B2089
:1037E00001F0BAFB0721302001F0B6FB40F20331B3
:1037F000312001F0B1FB0321322001F0ADFB40F29A
:103800000621352001F0A8FB0821362001F0A4FB99
:1038100040F20641372001F09FFB4FF4417100E078
:1038200058E0382001F098FB0721392001F094FB83
:1038300040F202613C2001F08FFB08213D2001F0A5
:103840008BFB0021502001F087FBEF21512001F07C
:1038500083FB0021522001F07FFB40F23F115320F7
:1038600001F07AFB4FF42741602001F075FB012144
:10387000612001F071FB00216A2001F06DFB002145
:10388000802001F069FB0021812001F065FB00210F
:10389000822001F061FB0021832001F05DFB00210B
:1038A000842001F059FB0021852001F055FB1021F7
:1038B000902001F051FB4FF4C061922001F04CFBCD
:1038C00040F23311072001F047FB2221002001F0D4
:1038D00043FB1FE78F48808849F2283188427DD119
:1038E00041F28F01EC2001F037FB41F23421EF204F
:1038F00001F032FB4FF48071012001F02DFB4FF4F9
:10390000E061022001F028FB41F23001032001F0C8
:1039100023FB0021042001F01FFB40F202210820BC
:1039200001F01AFB0021092001F016FB00210A20FA
:1039300001F012FB01210C2001F00EFB00210D20F3
:1039400001F00AFB00210F2001F006FB00211020EE
:1039500001F002FB0721112001F0FEFA00211220E4
:1039600001F0FAFA0021132001F0F6FA01210720F4
:1039700001F0F2FA322001F0F3FF41F29041102001
:1039800001F0EAFA40F22721112001F0E5FA322095
:1039900001F0E6FF8A21122001F0DEFA322001F068
:1039A000DFFF4FF4D051132001F0D6FA0621292071
:1039B00001F0D2FA0D212B2001F0CEFA322001F0D5
:1039C000CFFF0021202001F0C7FA0021212001F0C3
:1039D000C3FA322001F0C4FF002100E075E030207E
:1039E00001F0BAFA40F20461312001F0B5FA40F278
:1039F0000531322001F0B0FA0021352001F0ACFA97
:103A000040F60941362001F0A7FA4FF40171372042
:103A100001F0A2FA40F20131382001F09DFA40F2A3
:103A20000771392001F098FA00213C2001F094FA46
:103A300040F60A213D2001F08FFA322001F090FF7C
:103A40000021502001F088FAEF21512001F084FA82
:103A50000021522001F080FA40F23F11532001F082
:103A60007BFA4FF42741602001F076FA01216120B2
:103A700001F072FA00216A2001F06EFA0021802024
:103A800001F06AFA0021812001F066FA002182200B
:103A900001F062FA0021832001F05EFA0021842007
:103AA00001F05AFA0021852001F056FA10219020E9
:103AB00001F052FA4FF4C061922001F04DFA40F249
:103AC0003311072001F048FA24E61248808849F2B1
:103AD000203188427ED10021084601F03DFA4FF4A2
:103AE0008071012001F038FA4FF4E061022001F00A
:103AF00033FA41F23001032001F02EFA00210420B4
:103B000001F02AFA40F20221082001F025FA0021F2
:103B1000092001E05402002001F01EFA00210A20D1
:103B200001F01AFA01210C2001F016FA00210D20F3
:103B300001F012FA00210F2001F00EFA322001F0FC
:103B40000FFF40F20111072001F006FA322001F0C8
:103B500007FF4FF48651102001F0FEF907211120D4
:103B600001F0FAF94FF48871122001F0F5F94FF4E1
:103B70003061132001F0F0F90021292001F0ECF967
:103B800044F210012B2001F0E7F90021502001F050
:103B9000E3F9EF21512001F0DFF90021522001F07B
:103BA000DBF940F23F11532001F0D6F94FF41C51DC
:103BB000602001F0D1F90121612001F0CDF900214F
:103BC0006A2001F0C9F90021802001F0C5F9002127
:103BD000812000E030E001F0BFF90021822001F0F7
:103BE000BBF90021832001F0B7F90021842001F006
:103BF000B3F90021852001F0AFF91021902001F0E8
:103C0000ABF90021922001F0A7F90121932001F0E6
:103C1000A3F94FF48871952001F09EF900219720B7
:103C200001F09AF90021982001F096F940F2731101
:103C3000072001F091F96DE5FE48808849F23131A5
:103C400088427DD141F21401E72001F085F94FF45B
:103C50008071012001F080F94FF40071022001F021
:103C60007BF941F23801032001F076F940F202219C
:103C7000082001F071F90021092001F06DF90021FF
:103C80000A2001F069F900210C2001F065F90021FA
:103C90000D2001F061F900210F2001F05DF90021F4
:103CA000102001F059F90721112001F055F90021E8
:103CB000122001F051F90021132001F04DF9C82024
:103CC00001F04EFE41F29061102001F045F940F202
:103CD0002721112001F040F9322001F041FE0C2192
:103CE000122001F039F9322001F03AFE4FF4006160
:103CF000132001F031F91121292001F02DF90B21B8
:103D00002B2001F029F9322001F02AFE0021202089
:103D100001F022F940F23F11212001F01DF90021AC
:103D2000302001F019F94FF48371312001F014F9BA
:103D30000021322001F010F94FF40171352000E02C
:103D400064E001F009F941F20A61362001F004F95A
:103D500040F20771372001F0FFF84FF483713820EB
:103D600001F0FAF840F20771392001F0F5F840F25D
:103D700002413C2001F0F0F840F60F413D2001F0F7
:103D8000EBF80021502001F0E7F8EF21512001F07D
:103D9000E3F80021522001F0DFF840F23F115320F8
:103DA00001F0DAF84FF41C51602001F0D5F8012140
:103DB000612001F0D1F800216A2001F0CDF8002146
:103DC000802001F0C9F80021812001F0C5F8002110
:103DD000822001F0C1F80021832001F0BDF800210C
:103DE000842001F0B9F80021852001F0B5F81021F8
:103DF000902001F0B1F84FF4C061922001F0ACF8CE
:103E000040F23311072001F0A7F883E48948808845
:103E100045F2084188427DD14FF48071012001F0C4
:103E20009BF84FF4E061022001F096F841F2300176
:103E3000032001F091F80021042001F08DF840F2F8
:103E40000721082001F088F80021092001F084F8FA
:103E500000210A2001F080F800210C2001F07CF8FC
:103E600000210D2001F078F800210F2001F074F8F6
:103E7000142001F075FD41F2B061102001F06CF8E2
:103E80000121112001F068F80121172001F064F8E8
:103E90004FF49C71122001F05FF84FF40061132081
:103EA00001F05AF80921292001F056F809212A20A9
:103EB00001F052F80021A42001F04EF8002150201A
:103EC00001F04AF8EF21512001F046F8002152207C
:103ED00001F042F840F23F11532001F03DF84FF459
:103EE0001C51602001F038F80121612001F034F804
:103EF00000216A2001F030F80021802001F02CF828
:103F00000021812001F028F80021822001F024F80E
:103F1000002100E024E0832001F01EF8002184202D
:103F200001F01AF80021852001F016F813219020E5
:103F300001F012F80021922001F00EF803219320E5
:103F400001F00AF84FF48871952001F005F840F26D
:103F50007311072001F000F8322001F001FDB8E4F0
:103F60003448808841F2055188427DD100210720E4
:103F700000F0F2FF322001F0F3FC4FF48E711220BA
:103F800000F0EAFF0121A42000F0E6FF0F21082045
:103F900000F0E2FF08210A2000F0DEFF08210D20DA
:103FA00000F0DAFF40F20771302000F0D5FF072162
:103FB000312000F0D1FF40F20361322000F0CCFF4D
:103FC0004FF4E061332000F0C7FF40F202213420BB
:103FD00000F0C2FF0221352000F0BEFF41F60F7154
:103FE000362000F0B9FF40F20771372000F0B4FF2F
:103FF0000021382000F0B0FF0021392000F0ACFF94
:1040000040F207713A2000F0A7FF00213B2000F0AA
:10401000A3FF07213C2000F09FFF00213D2000F07E
:104020009BFF322001F09CFC0121072000F094FF4F
:10403000012101E054020020172000F08DFF322002
:1040400001F08EFC4FF4BD51102000F085FF40F2CE
:104050001721112000F080FF4FF48F71122000F023
:104060007BFF4FF4706100E098E0132000F074FFD4
:1040700000212A2000F070FF0A21292000F06CFFA7
:104080004FF49F71122000F067FF0021502000F0D4
:1040900063FFEF21512000F05FFF0021522000F06C
:1040A0005BFF40F23F11532000F056FF4FF41C51CC
:1040B000602000F051FF0121612000F04DFF002140
:1040C0006A2000F049FF0021802000F045FF002118
:1040D000812000F041FF0021822000F03DFF0021FF
:1040E000832000F039FF0021842000F035FF0021FB
:1040F000852000F031FF1321902000F02DFF4FF4B8
:104100004071922000F028FF0521932000F024FF49
:104110000021952000F020FF0021972000F01CFFD7
:104120000021982000F018FF4FF48071012000F06A
:1041300013FF4FF4E061022000F00EFF41F238015E
:10414000032000F009FF0021042000F005FF0021FA
:104150000C2000F001FF00210F2000F0FDFE0021E7
:10416000202000F0F9FE0021212000F0F5FE2121A1
:10417000072000F0F1FE142001F0F2FB612107207E
:1041800000F0EAFE142001F0EBFB40F2731107206F
:1041900000F0E2FE142001F0E3FB95E4FE48808885
:1041A0004BF2055188427CD10021084600F0D4FE34
:1041B0000021084600F0D0FE0021084600F0CCFEA9
:1041C0000021084600F0C8FE0121A42000F0C4FE32
:1041D000142001F0C5FB4FF41C51602000F0BCFE20
:1041E00040F20221082000F0B7FE4FF405713020A4
:1041F00000F0B2FE43F21571312000F0ADFE40F246
:104200000461322000F0A8FE40F61661332000F071
:10421000A3FE42F21121342000F09EFE4FF4A8517B
:10422000352000F099FE48F20751362000F094FE48
:1042300041F20741372000F08FFE41F20341382060
:1042400000F08AFE2021392000F086FE1A219020FD
:1042500000F082FE0021102000F07EFE07211120D8
:1042600000F07AFE0021122000F076FE00211320DB
:1042700000F072FE142001F073FB4FF4E661102091
:1042800000F06AFE40F23711112000F065FE1420A4
:1042900001F066FB4FF4DC71122000F05DFE14208B
:1042A00000E085E001F05CFB4FF47061132000F04A
:1042B00053FE80212A2000F04FFE4821292000F0E3
:1042C0004BFE142001F04CFB4FF48071012000F0F4
:1042D00043FE4FF4E061022000F03EFE41F238015F
:1042E000032000F039FE40F20221082000F034FEE5
:1042F00000210A2000F030FE00210C2000F02CFEEE
:1043000000210D2000F028FE30210E2000F024FEB8
:104310000021502000F020FEEF21512000F01CFE73
:104320000021522000F018FE40F23F11532000F00F
:1043300013FE4FF41C51602000F00EFE012161209D
:1043400000F00AFE00216A2000F006FE11219020F4
:1043500000F002FE4FF4C061922000F0FDFD40F23B
:104360000241932000F0F8FD0221942000F0F4FDBA
:10437000142001F0F5FA0121072000F0EDFD1420D2
:1043800001F0EEFA6121072000F0E6FD40F2731122
:10439000072000F0E1FD0021202000F0DDFD0021DC
:1043A000212000F0D9FD2221002000F0D5FD11E3ED
:1043B000794880884CF2055188427CD1002108461A
:1043C00000F0CAFD0021084600F0C6FD142001F0EF
:1043D000C7FA0021084600F0BFFD0021084600F0A2
:1043E000BBFD0021084600F0B7FD0021084600F0A3
:1043F000B3FD0121A42000F0AFFD142001F0B0FABC
:104400004FF41C51602000F0A7FD40F60601082083
:1044100000F0A2FD40F20371302000F09DFD01216B
:10442000312000F099FD0421322000F095FD4FF479
:104430008171332000F090FD4FF44071342000F082
:104440008BFD40F20311352000F086FD1F21362040
:1044500000F082FD40F20371372000F07DFD012164
:10446000382000F079FD0421392000F075FD152178
:10447000902000F071FD4FF48261102000F06CFD7F
:1044800040F24721112000F067FD4FF4DE71122049
:1044900000F062FD4FF46061132000F05DFD7820B4
:1044A00001F05EFA4FF48071012000F055FD4FF4E9
:1044B0000071022000E052E000F04EFD41F23001B8
:1044C000032000F049FD08210A2000F045FD0021ED
:1044D0000C2000F041FD20210E2000F03DFD0021C8
:1044E0000F2000F039FD0021202000F035FD0021D3
:1044F000212000F031FD3D212A2000F02DFD142067
:1045000001F02EFA2D21292000F026FD0021502057
:1045100000F022FD4DF2EF01512000F01DFD0021C1
:10452000522000F019FD40F23F11532000F014FD1D
:104530000021612000F010FD00216A2000F00CFD38
:104540004FF44071922000F007FD0521932000F008
:1045500003FD4FF48071072000F0FEFC3AE20E48A4
:10456000808844F2315188427ED10121002000F040
:10457000F3FC0A2001F0F4F941F22861102000F068
:10458000EBFC0E21122000F0E7FC40F6392113204D
:1045900000F0E2FC0A2001E05402002001F0E0F902
:1045A0004021112000F0D8FC5021152000F0D4FC4F
:1045B0000A2001F0D5F91E21122000F0CDFC0A20BE
:1045C00001F0CEF94FF4B151102000F0C5FC42F6D5
:1045D0003921132000F0C0FC0A2001F0C1F94FF48A
:1045E0008071012000F0B8FC4FF44071022000F00F
:1045F000B3FC41F23801032000F0AEFC40F202218E
:10460000082000F0A9FC08210A2000F0A5FC0021E8
:10461000302000F0A1FC40F20241312000F09CFC6F
:104620004FF48371322000F097FC40F203513320A5
:1046300000F092FC4FF48271342000F08DFC40F2C7
:104640000131352000F088FC40F20771362000F07F
:1046500083FC40F20531372000F07EFC4FF40271FC
:10466000382000F079FC00E03EE040F60B71392084
:1046700000F072FC0221412000F06EFC4FF41C514E
:10468000602000F069FC0121612000F065FC4FF41E
:104690000471902000F060FC4FF48571922000F0CE
:1046A0005BFC0421932000F057FC4FF48071A020A4
:1046B00000F052FC0121072000F04EFC21210720D0
:1046C00000F04AFC2321072000F046FC332107209C
:1046D00000F042FC40F23311072000F03DFC0021C5
:1046E000A02000F039FC75E1C048808844F23551C3
:1046F00088427CD13021152000F02EFC10219A2018
:1047000000F02AFC2021112000F026FC43F2284171
:10471000102000F021FC0221122000F01DFC41F2CB
:104720003801132000F018FC282001F019F912219B
:10473000084600F011FC282001F012F943F2204154
:10474000102000F009FC43F23801132000F004FCB3
:10475000462001F005F90021302000F0FDFB40F279
:104760000241312000F0F8FB40F20731322000F026
:10477000F3FB4FF44171332000F0EEFB04213420B1
:1047800000F0EAFB40F20141352000F0E5FB40F289
:104790000771362000F0E0FB40F20531372000F0D1
:1047A000DBFB4FF4C261382000F0D6FB4FF4C2614E
:1047B000392000F0D1FB4FF48071012000F0CCFBD8
:1047C0004FF44071022000F0C7FB41F2300103209A
:1047D00000F0C2FB40F60801082000F0BDFB0821F4
:1047E0000A2000F0B9FB4FF41C51602000E033E0D8
:1047F00000F0B2FB0121612000F0AEFB4FF49F718D
:10480000902000F0A9FB4FF48071922000F0A4FBEF
:104810004FF48071932000F09FFB4FF44051A02093
:1048200000F09AFB1021A32000F096FB0121072045
:1048300000F092FB2121072000F08EFB23210720AE
:1048400000F08AFB3321072000F086FB40F2331191
:10485000072000F081FBBDE06448808841F66311C9
:104860008842F8D1E22000F061FB1D2000F052FBED
:10487000022000F04FFB042000F04CFB642001F00C
:104880008BF8E02000F052FB012000F043FB0A20EF
:1048900001F066F8E02000F049FB032000F03AFB4D
:1048A0000C2001F05DF8012000F040FB0A2001F02F
:1048B00057F8E62000F03AFB2F2000F02BFBFF20FA
:1048C00000F028FBFF2000F025FBB02000F02EFBBD
:1048D000202000F01FFB002000F01CFB032000F054
:1048E00019FB40F21F3000F015FB012000F012FB15
:1048F00040F2DF1000F00EFB002000F00BFBB420B4
:1049000000F014FB042000F005FB40F21F4000F013
:1049100001FB002000F0FEFA2E2000F0FBFA002040
:1049200000F0F8FA002000F0F5FA002000F0F2FAAA
:10493000002000F0EFFAB62000F0F8FA022000F0B4
:10494000E9FA4FF4037000F0E5FA002000F0E2FA13
:10495000172000F0DFFA152000F0DCFA002000F04C
:10496000D9FA002000F0D6FAF02000F0DFFA032098
:1049700000F0D0FA292000F0D9FAD02000F0D6FAC1
:10498000002000F0C7FABE2000F0D0FA052000F0A9
:10499000C1FAFE2000F0BEFA012000F0BBFA0020B0
:1049A00000F0B8FA002000F0B5FA002000F0B2FAEA
:1049B000B82000F0BBFA032000F0ACFA012000F0B0
:1049C000A9FABA2000F0B2FA012000F0A3FA64209C
:1049D00000F026F80020FCF775FA01200449086071
:1049E0004FF6FF70FCF738FA21B000BD54020020EA
:1049F000BC82404208B5034800880090BDF8000022
:104A000008BD00008000006C10B50446204600F090
:104A10008DFA052000F0C0FFFFF7ECFF10BD00008D
:104A200070B52DED048B0446BE2000F07FFA052002
:104A300000F070FA204601F078F941EC190B9FED77
:104A40000E0B53EC102B01F083F941EC180B01F025
:104A50003FF985B2284600F05DFA012000F05AFACD
:104A6000FF2000F057FA002000F054FA002000F078
:104A700051FABDEC048B70BD6666666666660440DE
:104A8000F0B5054600240027B748807901280BD1EE
:104A9000B548808846F60401884205D0B24880882F
:104AA00041F66311884208D1AF488079F0B9AE4829
:104AB000808841F66311884218D1082D15D2DFE8AD
:104AC00005F00406080A0C0E101206250DE0072555
:104AD0000BE0042509E0052507E0012505E0002598
:104AE00003E0032501E0022500BF00BF9E48808847
:104AF00049F24131884217D09B48808846F604012C
:104B0000884211D09848808845F2103188420BD0F5
:104B10009548808845F21051884205D09248808897
:104B200041F6631188427DD1082D1CD2DFE805F0E3
:104B30000406090C0F12151800BF14E044F080049D
:104B400011E044F040040EE044F0C0040BE044F0F7
:104B5000200408E044F0600405E044F0A00402E012
:104B600044F0E00400BF00BF7F48808845F2105148
:104B7000884202D14FF4585700E036277A4880889F
:104B800045F2103188420DD07748808845F21051A7
:104B9000884207D07448808841F66311884201D06A
:104BA00044F008047048808846F60401884201D128
:104BB00044F002042146384600F0CEF96A48808865
:104BC00041F6631188421DD004F0200068B16648A8
:104BD000008865494988884214DA63480688408815
:104BE00061490880084646800CE05F4800885E49BD
:104BF0004988884206DD5C48068840885A49088012
:104C0000084646805848808845F21051884254D161
:104C10005549488900F08AF9002000F07BF9524993
:104C2000498900E078E0491C88B200F07FF9002053
:104C300000F070F94C494989891C88B200F076F976
:104C400049490988491EC1F30F2000F063F946491C
:104C50004989C91C88B200F069F943490978491E9D
:104C6000C8B200F057F94049888900F05FF9002088
:104C700000F050F93C498989491C88B200F056F986
:104C8000002000F047F938498989891C88B200F072
:104C90004DF935494988491EC1F30F2000F03AF912
:104CA00031498989C91C88B200F040F92E498978B8
:104CB000491EC8B200F02EF955E02B49488900F092
:104CC00035F9002000F026F9002000F023F92649EC
:104CD0000988491EC1F30F2000F01CF92249097808
:104CE000491EC8B200F016F91F49888900F01EF964
:104CF000002000F00FF9002000F00CF91A49498853
:104D0000491EC1F30F2000F005F917498978491EA3
:104D1000C8B200F0FFF826E0082D1CD2DFE805F04D
:104D200004070A0D0F12151844F0300413E044F084
:104D3000100410E044F020040DE000BF0BE044F04C
:104D4000380408E044F0280405E044F0180402E0C8
:104D500044F0080400BF00BF032744F480542146F8
:104D6000384600F0F9F8F0BD5402002030B5044692
:104D70000D466748808849F24131884205D0644831
:104D8000808845F21031884214D16149488900F089
:104D9000CDF8201200F0BEF8E0B200F0BBF85C499C
:104DA000888900F0C3F8281200F0B4F8E8B200F0E7
:104DB000B1F8ABE05648808846F6040188421DD120
:104DC00053488079012804D151480088401E001BB7
:104DD00084B24F49488900F0A9F8201200F09AF8EF
:104DE000E0B200F097F84A49888900F09FF828124D
:104DF00000F090F8E8B200F08DF887E04448808831
:104E000041F66311884247D141488079A8B94048AA
:104E10000088401E001B84B23D49488900F086F896
:104E2000002000F077F8002000F074F8201200F065
:104E300071F8E0B200F06EF816E03549488900F0EC
:104E400075F8201200F066F8E0B200F063F830491F
:104E50000988491EC1F30F2000F05CF82C4909783D
:104E6000491EC8B200F056F82949888900F05EF85A
:104E7000281200F04FF8E8B200F04CF824494988B5
:104E8000491EC1F30F2000F045F821498978491ED9
:104E9000C8B200F03FF839E01D48808845F2105153
:104EA000884220D11A49488900F040F8201200F0C9
:104EB00031F817494989491C88B200F037F8E0B247
:104EC00000F028F81249888900F030F8281200F024
:104ED00021F80F498989491C88B200F027F8E8B207
:104EE00000F018F812E00A488079012804D1084837
:104EF0000088401E001B84B205494889214600F005
:104F00002BF803498889294600F026F830BD0000B7
:104F10005402002001B5BDF800000090BDF800006B
:104F20000149088008BD00008000006C01B5BDF893
:104F300000000090BDF800000149088008BD000095
:104F40007E00006C0248008902490880704700001A
:104F5000540200207E00006C034A10804FF0D842BB
:104F6000A2F88010704700007E00006C1CB5012183
:104F7000202000F08FF84FF4C060009001208DF8E1
:104F8000040000208DF8060003208DF805000120A4
:104F90008DF8070069460448FBF732FE4FF4C06104
:104FA0000148FBF798FE1CBD0014024000BFFEE75D
:104FB0007047000070B5002100230F22C4781CB395
:104FC000174C246804F4E064C4F5E064C4F30721DA
:104FD000C1F10404E3B20A4144789C40E1B2847810
:104FE000144021430C07210E0E4C057861550478BE
:104FF00004F01F050124AC4005786D11AD0005F1EA
:10500000E025C5F8004109E0047804F01F050124FB
:10501000AC40054D0678761145F8264070BD00007D
:105020000CED00E000E400E080E100E00249014313
:10503000024A1160704700000000FA050CED00E024
:1050400010B5022411E00C4A91881068FBF7C0FAF1
:105050000948016B09A088470749C82208680BA1C5
:10506000FBF7B3FD08B1012010BD201EA4F1010122
:10507000CCB2E8D100BFF7E71000002041542B4329
:1050800049504D4F44453D310D0A00004F4B000043
:105090007047000029B1064A12680243044B1A60A7
:1050A00004E0034A12688243014B1A607047000013
:1050B0003038024029B1064A12680243044B1A6094
:1050C00004E0034A12688243014B1A6070470000F3
:1050D0003838024029B1064A12680243044B1A606C
:1050E00004E0034A12688243014B1A6070470000D3
:1050F0004038024029B1064A12680243044B1A6044
:1051000004E0034A12688243014B1A6070470000B2
:105110002038024029B1064A12680243044B1A6043
:1051200004E0034A12688243014B1A607047000092
:105130004438024029B1064A12680243044B1A60FF
:1051400004E0034A12688243014B1A607047000072
:1051500024380240F0B50021002200240225002658
:105160000223324F3F6807F00C0121B1042905D01A
:10517000082937D105E02E4F076036E02D4F076034
:1051800033E02A4F3F1F3F68C7F38056274F3F1F2A
:105190003F6807F03F036EB1264FB7FBF3F7DFF828
:1051A0008CC0ACF1040CDCF800C0CCF3881C07FB0D
:1051B0000CF40CE01E4FB7FBF3F7DFF870C0ACF156
:1051C000040CDCF800C0CCF3881C07FB0CF4174F70
:1051D0003F1F3F68C7F301477F1C7D00B4FBF5F715
:1051E000076002E0124F076000BF00BF0F4F3F682B
:1051F00007F0F0010909104F7A5C0768D740476053
:105200000A4F3F6807F4E051890A0B4F7A5C476800
:10521000D7408760054F3F6807F46041490B064F50
:105220007A5C4768D740C760F0BD0000083802408C
:105230000024F40000127A005000002010B5064946
:10524000C86A80470448816B4FF4FA708847024867
:10525000016B02A0884710BD1000002041542B5262
:105260004553544F52450D0A00000000704700009E
:1052700070B505460C46054A91881068FBF7A8F9F9
:10528000E1B2284600F01BFB70BD000010000020BA
:1052900010B50446044A91881068FBF799F9204636
:1052A00000F02CFB10BD0000100000200CB5002009
:1052B000019000903448006840F480303249086022
:1052C00000BF3148006800F4003000900198401C95
:1052D0000190009818B90198B0F5A04FF1D12A4873
:1052E000006800F4003010B10120009001E00020BF
:1052F00000900098012846D123484030006840F0D3
:1053000080502149403108602048006840F4404006
:105310001E4908601C48083000681B4908310860B5
:105320000846006840F4004008600846006840F401
:10533000A05008601648091F0860081F006840F068
:105340008070091F086000BF0F48006800F00070FF
:105350000028F9D040F205700E4908600A4808306C
:10536000006820F00300084908310860084600681A
:1053700040F00200086000BF03480830006800F0F9
:105380000C000828F8D10CBD003802400070004025
:1053900008544007003C0240042808D14FF0E021A7
:1053A000096941F004014FF0E022116107E04FF07C
:1053B000E021096921F004014FF0E02211617047FA
:1053C0007047000010B51548006840F4700013499C
:1053D00008601348006840F001001149086000208F
:1053E0000F49083108600E4800680E4908400C4912
:1053F00008600D48091D0860081F006820F480201F
:10540000091F0860002006490C310860FFF74EFFB5
:105410004FF0006001498039086010BD88ED00E060
:1054200000380240FFFFF6FE1030002410B50121C5
:10543000064800F046F838B10121044800F032F87F
:105440000021024800F031F810BD000000140040B7
:105450007FB505460C4601212020FFF73BFE019554
:10546000ADF800400020ADF80800ADF80200694634
:105470000B4800F041F801221146094800F032F8CB
:1054800037208DF80C0000208DF80D0001208DF8DC
:105490000E008DF80F0003A8FFF78CFD7FBD000004
:1054A00000140040CA430282704721B1028842F0D2
:1054B0000102028004E002884FF6FE731A40028067
:1054C000704730B50246002000230024158A05EA03
:1054D0000103958905EA010413B10CB1012000E034
:1054E000002030BD1AB183890B43838102E0838998
:1054F0008B4383817047000000220288184B98423A
:105500000ED0184B98420BD0B0F1804F08D0164BFC
:10551000984205D0154B984202D0154B984204D1C1
:105520004FF68F731A404B881A43124B984207D09C
:10553000114B984204D04FF6FF431A400B891A438F
:1055400002804B68C3620B880385054B984202D0EA
:10555000044B984201D18B7A0386012383827047E2
:105560000000014000040140000400400008004029
:10557000000C0040001000400014004010B540F244
:105580002551144800F0D7F810B340F225511148C6
:1055900000F031F80F4800F087F90F4908700F4804
:1055A0000078FF2802DB00200C4908700A480178C7
:1055B00002780078401C084B18700948815407484D
:1055C0000078FA21B0FBF1F201FB120003490870E8
:1055D00010BD000000480040000000200100002035
:1055E0005A01002001F40072B2F5007F00D100BF23
:1055F000CA430280704710B50022002340F66A14A7
:10560000A14200D100BF0A1201249440A3B2DC439E
:10561000048010BD21B1828942F40052828104E0ED
:1056200082894DF6FF731A408281704710B5044697
:105630003248844208D101211020FFF77BFD002170
:105640001020FFF777FD57E02D48844209D1012152
:105650004804FFF74FFD00214FF40030FFF74AFDEB
:105660004AE02848844209D101218804FFF742FD1D
:1056700000214FF48020FFF73DFD3DE022488442A9
:1056800009D10121C804FFF735FD00214FF40020A6
:10569000FFF730FD30E01D48844209D101210805A3
:1056A000FFF728FD00214FF48010FFF723FD23E0D2
:1056B0001748844208D101212020FFF73BFD00213B
:1056C0002020FFF737FD17E01248844209D101215D
:1056D0008807FFF70FFD00214FF08040FFF70AFD1C
:1056E0000AE00D48844207D101214005FFF702FD81
:1056F00000216005FFF7FEFC10BD00000010014016
:105700000044004000480040004C00400050004071
:105710000014014000780040007C00400246002058
:10572000B1F5007F00D100BF13880B400BB1012001
:1057300000E00020704770B50246002400230025D9
:10574000002040F66A16B14200D100BFC1F34215F5
:1057500001F01F03012606FA03F3012D02D19689F9
:10576000334006E0022D02D1168A334001E0968ACA
:1057700033400C12012606FA04F41688344013B1A3
:105780000CB1012000E0002070BDF0B503460024FC
:1057900000260025002040F66A17B94200D100BF5C
:1057A0001846C1F3421401F01F06012707FA06F557
:1057B000012C01D10C3004E0022C01D1103000E0AA
:1057C00014301AB107682F43076002E00768AF433F
:1057D0000760F0BD2DE9FF4705460E460024A146AF
:1057E00000BFA046B08900B100BF2C8A24F4405409
:1057F000F08804432C82AC8941F20C608443B08869
:1058000031890843718908430443AC81AC8A24F48C
:105810004074B0890443AC826846FFF79BFC204883
:10582000854202D01F48854202D1DDF80C9001E08C
:10583000DDF80890A88900F4004040B109EBC900E8
:1058400000EB091031684900B0FBF1F707E009EB04
:10585000C90000EB091031688900B0FBF1F7642042
:10586000B7FBF0F004012009642101FB1078A8893E
:1058700000F4004040B1322000EBC800B0FBF1F072
:1058800000F00700044308E0322000EB0810642118
:10589000B0FBF1F000F00F0004432C81BDE8FF875E
:1058A000001001400014014001468888C0F3080040
:1058B0007047C1F308028280704700BFFEE770B5F1
:1058C00004460D4603E014F8010B00F007F8281E0B
:1058D000A5F10101CDB2F6D170BD000010B50446AE
:1058E00021460548FFF7E5FF00BF40210248FFF7CA
:1058F00015FF0028F9D010BD0048004010B504463F
:1059000003E014F8010BFFF7E9FF20780028F8D135
:1059100010BD30380A2801D201207047002070479E
:1059200000BF704710B504466FF00400FFF734FD68
:10593000E11704EB5171C1F3C701074A117010461A
:10594000007800EB4001C1EBC0104FF6FF7101EA97
:10595000C0000249088010BD0200002004000020A1
:1059600070B504464FF4077094FBF0F0C6B24FF4E4
:10597000077094FBF0F100FB114085B205E04FF495
:10598000077000F02FF8701EC6B2002EF7D115B1C7
:10599000284600F027F870BD0146114A12784A43A4
:1059A0004FF0E0235A6100229A611A46126942F0D0
:1059B00001021A6100BF4FF0E022106900F00102FD
:1059C0001AB100F48032002AF5D04FF0E0221269BB
:1059D00022F001024FF0E0231A6100229A61704721
:1059E000020000200146114A12884A434FF0E0238A
:1059F0005A6100229A611A46126942F001021A6144
:105A000000BF4FF0E022106900F001021AB100F46B
:105A10008032002AF5D04FF0E022126922F0010214
:105A20004FF0E0231A6100229A61704704000020C1
:105A300000BF054A128802F04002002AF9D0C2B223
:105A4000014B9A8070470000001001404FF4A060A5
:105A5000FFF7ECFAA820FFF765FF4FF4E13000F004
:105A600071F84FF4E13000F0C7F8FFF77FFAFBF769
:105A700009FBFBF7CFF91248FA23124A1946446989
:105A80001148A04718B111A0FAF7FAFB02E013A0E1
:105A9000FAF7F6FB0A4816A1C26918A0904730B180
:105AA00019A0FAF7EDFB0649C86B804702E01FA07A
:105AB000FAF7E6FB03E04FF4FA60FFF751FFFAE76D
:105AC00010000020600000205A0100204E65742064
:105AD000496E6974204F4B210D0A00004E657420F9
